{
  "contractName": "Core",
  "abi": [
    {
      "anonymous": false,
      "inputs": [
        {
          "indexed": false,
          "internalType": "address",
          "name": "caller",
          "type": "address"
        },
        {
          "indexed": false,
          "internalType": "uint256",
          "name": "id",
          "type": "uint256"
        }
      ],
      "name": "AcceptReward",
      "type": "event"
    },
    {
      "anonymous": false,
      "inputs": [
        {
          "indexed": false,
          "internalType": "address",
          "name": "caller",
          "type": "address"
        },
        {
          "indexed": false,
          "internalType": "uint256",
          "name": "id",
          "type": "uint256"
        }
      ],
      "name": "AcceptTask",
      "type": "event"
    },
    {
      "anonymous": false,
      "inputs": [
        {
          "indexed": false,
          "internalType": "address",
          "name": "caller",
          "type": "address"
        },
        {
          "indexed": false,
          "internalType": "address",
          "name": "acc",
          "type": "address"
        }
      ],
      "name": "AddAdmin",
      "type": "event"
    },
    {
      "anonymous": false,
      "inputs": [
        {
          "indexed": false,
          "internalType": "address",
          "name": "caller",
          "type": "address"
        },
        {
          "components": [
            {
              "internalType": "string",
              "name": "name",
              "type": "string"
            },
            {
              "internalType": "string",
              "name": "description",
              "type": "string"
            },
            {
              "internalType": "string",
              "name": "logo",
              "type": "string"
            },
            {
              "internalType": "address",
              "name": "account",
              "type": "address"
            }
          ],
          "indexed": false,
          "internalType": "struct Core.NewPartner",
          "name": "partner",
          "type": "tuple"
        }
      ],
      "name": "AddPartner",
      "type": "event"
    },
    {
      "anonymous": false,
      "inputs": [
        {
          "indexed": false,
          "internalType": "address",
          "name": "caller",
          "type": "address"
        },
        {
          "components": [
            {
              "internalType": "string",
              "name": "caption",
              "type": "string"
            },
            {
              "internalType": "string",
              "name": "description",
              "type": "string"
            },
            {
              "internalType": "string",
              "name": "image",
              "type": "string"
            },
            {
              "internalType": "uint256",
              "name": "value",
              "type": "uint256"
            },
            {
              "internalType": "uint256",
              "name": "totalAmount",
              "type": "uint256"
            }
          ],
          "indexed": false,
          "internalType": "struct Core.NewReward",
          "name": "reward",
          "type": "tuple"
        }
      ],
      "name": "AddReward",
      "type": "event"
    },
    {
      "anonymous": false,
      "inputs": [
        {
          "indexed": false,
          "internalType": "address",
          "name": "caller",
          "type": "address"
        },
        {
          "components": [
            {
              "internalType": "string",
              "name": "caption",
              "type": "string"
            },
            {
              "internalType": "string",
              "name": "description",
              "type": "string"
            },
            {
              "internalType": "string",
              "name": "image",
              "type": "string"
            },
            {
              "internalType": "uint8",
              "name": "itemType",
              "type": "uint8"
            },
            {
              "internalType": "bytes",
              "name": "data",
              "type": "bytes"
            },
            {
              "internalType": "uint256",
              "name": "value",
              "type": "uint256"
            },
            {
              "internalType": "uint256",
              "name": "totalAmount",
              "type": "uint256"
            }
          ],
          "indexed": false,
          "internalType": "struct Core.NewTask",
          "name": "task",
          "type": "tuple"
        }
      ],
      "name": "AddTask",
      "type": "event"
    },
    {
      "anonymous": false,
      "inputs": [
        {
          "indexed": false,
          "internalType": "address",
          "name": "caller",
          "type": "address"
        },
        {
          "indexed": false,
          "internalType": "address",
          "name": "partnerAddress",
          "type": "address"
        },
        {
          "indexed": false,
          "internalType": "uint256",
          "name": "amount",
          "type": "uint256"
        }
      ],
      "name": "AddTokenBalance",
      "type": "event"
    },
    {
      "anonymous": false,
      "inputs": [
        {
          "indexed": false,
          "internalType": "address",
          "name": "caller",
          "type": "address"
        },
        {
          "indexed": false,
          "internalType": "address",
          "name": "acc",
          "type": "address"
        }
      ],
      "name": "AddUser",
      "type": "event"
    },
    {
      "anonymous": false,
      "inputs": [
        {
          "indexed": false,
          "internalType": "address",
          "name": "caller",
          "type": "address"
        },
        {
          "indexed": false,
          "internalType": "uint256",
          "name": "id",
          "type": "uint256"
        }
      ],
      "name": "CompleteReward",
      "type": "event"
    },
    {
      "anonymous": false,
      "inputs": [
        {
          "indexed": false,
          "internalType": "address",
          "name": "caller",
          "type": "address"
        },
        {
          "indexed": false,
          "internalType": "uint256",
          "name": "id",
          "type": "uint256"
        }
      ],
      "name": "CompleteTask",
      "type": "event"
    },
    {
      "anonymous": false,
      "inputs": [
        {
          "indexed": false,
          "internalType": "address",
          "name": "caller",
          "type": "address"
        }
      ],
      "name": "IncreaseContractEthBalance",
      "type": "event"
    },
    {
      "anonymous": false,
      "inputs": [
        {
          "indexed": false,
          "internalType": "address",
          "name": "caller",
          "type": "address"
        },
        {
          "indexed": false,
          "internalType": "address payable",
          "name": "acc",
          "type": "address"
        }
      ],
      "name": "IncreaseUserEthBalance",
      "type": "event"
    },
    {
      "anonymous": false,
      "inputs": [
        {
          "indexed": false,
          "internalType": "address",
          "name": "caller",
          "type": "address"
        },
        {
          "indexed": false,
          "internalType": "address",
          "name": "acc",
          "type": "address"
        }
      ],
      "name": "RemoveAdmin",
      "type": "event"
    },
    {
      "anonymous": false,
      "inputs": [
        {
          "indexed": false,
          "internalType": "address",
          "name": "caller",
          "type": "address"
        },
        {
          "indexed": false,
          "internalType": "address",
          "name": "tokenAddress",
          "type": "address"
        }
      ],
      "name": "SetToken",
      "type": "event"
    },
    {
      "anonymous": false,
      "inputs": [
        {
          "indexed": false,
          "internalType": "address",
          "name": "caller",
          "type": "address"
        },
        {
          "indexed": false,
          "internalType": "address payable",
          "name": "acc",
          "type": "address"
        }
      ],
      "name": "UnlockRewardsForUser",
      "type": "event"
    },
    {
      "anonymous": false,
      "inputs": [
        {
          "indexed": false,
          "internalType": "address",
          "name": "caller",
          "type": "address"
        },
        {
          "indexed": false,
          "internalType": "address payable",
          "name": "acc",
          "type": "address"
        }
      ],
      "name": "UnlockTasksForUser",
      "type": "event"
    },
    {
      "anonymous": false,
      "inputs": [
        {
          "indexed": false,
          "internalType": "address",
          "name": "caller",
          "type": "address"
        },
        {
          "indexed": false,
          "internalType": "address",
          "name": "acc",
          "type": "address"
        }
      ],
      "name": "UpgradeAdmin",
      "type": "event"
    },
    {
      "constant": true,
      "inputs": [],
      "name": "BYTES_ZERO",
      "outputs": [
        {
          "internalType": "bytes",
          "name": "",
          "type": "bytes"
        }
      ],
      "payable": false,
      "stateMutability": "view",
      "type": "function"
    },
    {
      "constant": true,
      "inputs": [],
      "name": "_ADMIN",
      "outputs": [
        {
          "internalType": "string",
          "name": "",
          "type": "string"
        }
      ],
      "payable": false,
      "stateMutability": "view",
      "type": "function"
    },
    {
      "constant": true,
      "inputs": [],
      "name": "_COMPENSATION",
      "outputs": [
        {
          "internalType": "uint256",
          "name": "",
          "type": "uint256"
        }
      ],
      "payable": false,
      "stateMutability": "view",
      "type": "function"
    },
    {
      "constant": true,
      "inputs": [],
      "name": "_PARTNER",
      "outputs": [
        {
          "internalType": "string",
          "name": "",
          "type": "string"
        }
      ],
      "payable": false,
      "stateMutability": "view",
      "type": "function"
    },
    {
      "constant": true,
      "inputs": [],
      "name": "_REWARD",
      "outputs": [
        {
          "internalType": "string",
          "name": "",
          "type": "string"
        }
      ],
      "payable": false,
      "stateMutability": "view",
      "type": "function"
    },
    {
      "constant": true,
      "inputs": [],
      "name": "_TASK",
      "outputs": [
        {
          "internalType": "string",
          "name": "",
          "type": "string"
        }
      ],
      "payable": false,
      "stateMutability": "view",
      "type": "function"
    },
    {
      "constant": true,
      "inputs": [],
      "name": "_USER",
      "outputs": [
        {
          "internalType": "string",
          "name": "",
          "type": "string"
        }
      ],
      "payable": false,
      "stateMutability": "view",
      "type": "function"
    },
    {
      "constant": true,
      "inputs": [],
      "name": "REWARD",
      "outputs": [
        {
          "internalType": "string",
          "name": "",
          "type": "string"
        }
      ],
      "payable": false,
      "stateMutability": "pure",
      "type": "function"
    },
    {
      "constant": true,
      "inputs": [],
      "name": "TASK",
      "outputs": [
        {
          "internalType": "string",
          "name": "",
          "type": "string"
        }
      ],
      "payable": false,
      "stateMutability": "pure",
      "type": "function"
    },
    {
      "constant": true,
      "inputs": [],
      "name": "ADMIN",
      "outputs": [
        {
          "internalType": "string",
          "name": "",
          "type": "string"
        }
      ],
      "payable": false,
      "stateMutability": "pure",
      "type": "function"
    },
    {
      "constant": true,
      "inputs": [],
      "name": "USER",
      "outputs": [
        {
          "internalType": "string",
          "name": "",
          "type": "string"
        }
      ],
      "payable": false,
      "stateMutability": "pure",
      "type": "function"
    },
    {
      "constant": true,
      "inputs": [],
      "name": "PARTNER",
      "outputs": [
        {
          "internalType": "string",
          "name": "",
          "type": "string"
        }
      ],
      "payable": false,
      "stateMutability": "pure",
      "type": "function"
    },
    {
      "constant": true,
      "inputs": [],
      "name": "COMPENSATION",
      "outputs": [
        {
          "internalType": "uint256",
          "name": "",
          "type": "uint256"
        }
      ],
      "payable": false,
      "stateMutability": "pure",
      "type": "function"
    },
    {
      "constant": true,
      "inputs": [
        {
          "internalType": "bytes",
          "name": "data",
          "type": "bytes"
        },
        {
          "internalType": "bytes",
          "name": "result",
          "type": "bytes"
        }
      ],
      "name": "isIncorrectTaskResultT0",
      "outputs": [
        {
          "internalType": "bool",
          "name": "isIncorrect",
          "type": "bool"
        }
      ],
      "payable": false,
      "stateMutability": "pure",
      "type": "function"
    },
    {
      "constant": true,
      "inputs": [
        {
          "internalType": "bytes",
          "name": "result",
          "type": "bytes"
        }
      ],
      "name": "isIncorrectTaskResultT1",
      "outputs": [
        {
          "internalType": "bool",
          "name": "isIncorrect",
          "type": "bool"
        }
      ],
      "payable": false,
      "stateMutability": "pure",
      "type": "function"
    },
    {
      "constant": true,
      "inputs": [
        {
          "internalType": "bytes",
          "name": "result",
          "type": "bytes"
        }
      ],
      "name": "isIncorrectTaskResultT2",
      "outputs": [
        {
          "internalType": "bool",
          "name": "isIncorrect",
          "type": "bool"
        }
      ],
      "payable": false,
      "stateMutability": "pure",
      "type": "function"
    }
  ],
  "bytecode": "0x61573262000027600b82828239805160001a60731461001a57fe5b30600052607381538281f3fe73000000000000000000000000000000000000000030146080604052600436106102055760003560e01c80639a07b32411610124578063d4e0dc6e116100b7578063e059ef9811610086578063e059ef9814610646578063ebebcf3d14610664578063f3810f1914610682578063f6babe50146106ab578063f7b49db6146106c957610205565b8063d4e0dc6e146105a6578063db7e1406146105cf578063dddd1d62146105ed578063deaea9e21461061d57610205565b8063c7470693116100f3578063c747069314610511578063cab34c081461053a578063cd3bb1c014610558578063d1b978b41461057657610205565b80639a07b3241461045f578063a99825ae14610488578063aa6093f4146104b1578063afee0313146104e157610205565b80632b6ea0b21161019c57806381e167cf1161016b57806381e167cf146103c65780638af7a4fe146103e45780639277864e1461040d578063931493301461043657610205565b80632b6ea0b214610326578063515572891461034f578063516a6de21461036d57806371504f121461039d57610205565b8063123fc717116101d8578063123fc71714610298578063142d9024146102c157806321358c6a146102df5780632a0acc6a1461030857610205565b80630654e8e31461020a578063086921c5146102285780630966ac6a146102515780630c7521091461027a575b600080fd5b6102126106e7565b60405161021f9190615164565b60405180910390f35b81801561023457600080fd5b5061024f600480360361024a919081019061446e565b610720565b005b81801561025d57600080fd5b506102786004803603610273919081019061446e565b6108bd565b005b610282610a48565b60405161028f9190615320565b60405180910390f35b8180156102a457600080fd5b506102bf60048036036102ba919081019061466d565b610a57565b005b6102c9610e0d565b6040516102d69190615164565b60405180910390f35b8180156102eb57600080fd5b50610306600480360361030191908101906144aa565b610e46565b005b610310610fdd565b60405161031d9190615186565b60405180910390f35b81801561033257600080fd5b5061034d6004803603610348919081019061446e565b61101a565b005b6103576111a7565b6040516103649190615164565b60405180910390f35b61038760048036036103829190810190614398565b6111e0565b6040516103949190615127565b60405180910390f35b8180156103a957600080fd5b506103c460048036036103bf9190810190614445565b61121b565b005b6103ce6113bd565b6040516103db9190615186565b60405180910390f35b8180156103f057600080fd5b5061040b600480360361040691908101906145dd565b6113fa565b005b81801561041957600080fd5b50610434600480360361042f91908101906144aa565b6118b4565b005b81801561044257600080fd5b5061045d600480360361045891908101906144e6565b611a41565b005b81801561046b57600080fd5b5061048660048036036104819190810190614631565b611c3e565b005b81801561049457600080fd5b506104af60048036036104aa9190810190614631565b61203a565b005b6104cb60048036036104c69190810190614445565b612289565b6040516104d89190614fa1565b60405180910390f35b6104fb60048036036104f691908101906143d9565b6122b7565b6040516105089190615127565b60405180910390f35b81801561051d57600080fd5b506105386004803603610533919081019061446e565b612479565b005b610542612604565b60405161054f9190615186565b60405180910390f35b610560612641565b60405161056d9190615142565b60405180910390f35b610590600480360361058b919081019061446e565b612654565b60405161059d9190615320565b60405180910390f35b8180156105b257600080fd5b506105cd60048036036105c89190810190614535565b61270b565b005b6105d76128cc565b6040516105e49190615164565b60405180910390f35b61060760048036036106029190810190614398565b612905565b6040516106149190615127565b60405180910390f35b81801561062957600080fd5b50610644600480360361063f9190810190614589565b61294b565b005b61064e612cb1565b60405161065b9190615164565b60405180910390f35b61066c612cea565b6040516106799190615186565b60405180910390f35b81801561068e57600080fd5b506106a960048036036106a49190810190614631565b612d27565b005b6106b3612eb4565b6040516106c09190615186565b60405180910390f35b6106d1612ef1565b6040516106de9190615320565b60405180910390f35b6040518060400160405280600681526020017f526577617264000000000000000000000000000000000000000000000000000081525081565b816040518060400160405280600581526020017f41646d696e000000000000000000000000000000000000000000000000000000815250600273__RolesLib______________________________63333fcfc7846003018433856040518563ffffffff1660e01b815260040161079994939291906152d4565b60206040518083038186803b1580156107b157600080fd5b505af41580156107c5573d6000803e3d6000fd5b505050506040513d601f19601f820116820180604052506107e9919081019061436f565b610828576040517f08c379a000000000000000000000000000000000000000000000000000000000815260040161081f90615274565b60405180910390fd5b7f99ad91c72e4fcc0a37d0481b982aec5c0c78491d30d39e65338bec15fa9cc4b73385604051610859929190614fbc565b60405180910390a16108b6856003016040518060400160405280600581526020017f41646d696e00000000000000000000000000000000000000000000000000000081525086600160405180602001604052806000815250612efc565b5050505050565b816040518060400160405280600581526020017f41646d696e000000000000000000000000000000000000000000000000000000815250600273__RolesLib______________________________63333fcfc7846003018433856040518563ffffffff1660e01b815260040161093694939291906152d4565b60206040518083038186803b15801561094e57600080fd5b505af4158015610962573d6000803e3d6000fd5b505050506040513d601f19601f82011682018060405250610986919081019061436f565b6109c5576040517f08c379a00000000000000000000000000000000000000000000000000000000081526004016109bc90615274565b60405180910390fd5b7f148da362aaafc6bbf0e0b77d62428bcd324bcf9785839aa07881d6c78d295df133856040516109f6929190614fbc565b60405180910390a1610a41856003016040518060400160405280600581526020017f41646d696e0000000000000000000000000000000000000000000000000000008152508661310c565b5050505050565b600066038d7ea4c68000905090565b836040518060400160405280600481526020017f5573657200000000000000000000000000000000000000000000000000000000815250600173__RolesLib______________________________63333fcfc7846003018433856040518563ffffffff1660e01b8152600401610ad094939291906152d4565b60206040518083038186803b158015610ae857600080fd5b505af4158015610afc573d6000803e3d6000fd5b505050506040513d601f19601f82011682018060405250610b20919081019061436f565b610b5f576040517f08c379a0000000000000000000000000000000000000000000000000000000008152600401610b5690615274565b60405180910390fd5b7f8db4b00ff8d67a0fc0faa3f7710b55a9098bfd22683a3fe794c78b94c401b0d83387604051610b909291906150d5565b60405180910390a16001876000016002016040518060400160405280600481526020017f5461736b00000000000000000000000000000000000000000000000000000000815250604051610be49190614f58565b9081526020016040518091039020600101600088815260200190815260200160002060040160159054906101000a900460ff1660ff1614610c5a576040517f08c379a0000000000000000000000000000000000000000000000000000000008152600401610c51906151f4565b60405180910390fd5b8660060160009054906101000a900473ffffffffffffffffffffffffffffffffffffffff1673ffffffffffffffffffffffffffffffffffffffff1663a9059cbb33896000016002016040518060400160405280600481526020017f5461736b00000000000000000000000000000000000000000000000000000000815250604051610ce59190614f58565b908152602001604051809103902060010160008a8152602001908152602001600020600301546040518363ffffffff1660e01b8152600401610d289291906150d5565b602060405180830381600087803b158015610d4257600080fd5b505af1158015610d56573d6000803e3d6000fd5b505050506040513d601f19601f82011682018060405250610d7a919081019061436f565b50610e04876000016040518060400160405280600481526020017f5461736b00000000000000000000000000000000000000000000000000000000815250883389898080601f016020809104026020016040519081016040528093929190818152602001838380828437600081840152601f19601f82011690508083019250505050505050613479565b50505050505050565b6040518060400160405280600781526020017f506172746e65720000000000000000000000000000000000000000000000000081525081565b816040518060400160405280600581526020017f41646d696e000000000000000000000000000000000000000000000000000000815250600173__RolesLib______________________________63333fcfc7846003018433856040518563ffffffff1660e01b8152600401610ebf94939291906152d4565b60206040518083038186803b158015610ed757600080fd5b505af4158015610eeb573d6000803e3d6000fd5b505050506040513d601f19601f82011682018060405250610f0f919081019061436f565b610f4e576040517f08c379a0000000000000000000000000000000000000000000000000000000008152600401610f4590615274565b60405180910390fd5b610f58858561368c565b7f5d5e2134d36e8b2bf0494aaa75eef95487a0a634b4a9435ea9da8255f73da2903385604051610f89929190614fe5565b60405180910390a1610fd6856003016040518060400160405280600481526020017f5573657200000000000000000000000000000000000000000000000000000000815250866001613829565b5050505050565b60606040518060400160405280600581526020017f41646d696e000000000000000000000000000000000000000000000000000000815250905090565b816040518060400160405280600581526020017f41646d696e000000000000000000000000000000000000000000000000000000815250600273__RolesLib______________________________63333fcfc7846003018433856040518563ffffffff1660e01b815260040161109394939291906152d4565b60206040518083038186803b1580156110ab57600080fd5b505af41580156110bf573d6000803e3d6000fd5b505050506040513d601f19601f820116820180604052506110e3919081019061436f565b611122576040517f08c379a000000000000000000000000000000000000000000000000000000000815260040161111990615274565b60405180910390fd5b7f66ac4a4a53e79c72196c09d92a0f982acbf04303fb693fa140d393b714f1dba53385604051611153929190614fbc565b60405180910390a16111a0856003016040518060400160405280600581526020017f41646d696e000000000000000000000000000000000000000000000000000000815250866002613829565b5050505050565b6040518060400160405280600581526020017f41646d696e00000000000000000000000000000000000000000000000000000081525081565b6000806060838060200190516111f9919081019061472b565b8090508092508193505050600a8260ff161061121457600192505b5050919050565b61125d816000016040518060400160405280600681526020017f52657761726400000000000000000000000000000000000000000000000000008152506138f5565b61129f816000016040518060400160405280600481526020017f5461736b000000000000000000000000000000000000000000000000000000008152506138f5565b6112e1816003016040518060400160405280600581526020017f41646d696e00000000000000000000000000000000000000000000000000000081525061396a565b611323816003016040518060400160405280600481526020017f557365720000000000000000000000000000000000000000000000000000000081525061396a565b611365816003016040518060400160405280600781526020017f506172746e65720000000000000000000000000000000000000000000000000081525061396a565b6113ba816003016040518060400160405280600581526020017f41646d696e00000000000000000000000000000000000000000000000000000081525033600260405180602001604052806000815250612efc565b50565b60606040518060400160405280600481526020017f5573657200000000000000000000000000000000000000000000000000000000815250905090565b816040518060400160405280600781526020017f506172746e657200000000000000000000000000000000000000000000000000815250600173__RolesLib______________________________63333fcfc7846003018433856040518563ffffffff1660e01b815260040161147394939291906152d4565b60206040518083038186803b15801561148b57600080fd5b505af415801561149f573d6000803e3d6000fd5b505050506040513d601f19601f820116820180604052506114c3919081019061436f565b611502576040517f08c379a00000000000000000000000000000000000000000000000000000000081526004016114f990615274565b60405180910390fd5b7f4350fc20c814f752605781376499c06b316363a19b4db42feaae50520e87532f33856040516115339291906150a5565b60405180910390a18460060160009054906101000a900473ffffffffffffffffffffffffffffffffffffffff1673ffffffffffffffffffffffffffffffffffffffff166323b872dd33308760c001358860a00135026040518463ffffffff1660e01b81526004016115a69392919061500e565b602060405180830381600087803b1580156115c057600080fd5b505af11580156115d4573d6000803e3d6000fd5b505050506040513d601f19601f820116820180604052506115f8919081019061436f565b506118ad856000016040518060400160405280600481526020017f5461736b0000000000000000000000000000000000000000000000000000000081525086806000018035600160200383360303811261165157600080fd5b8083019250508135905060208201915067ffffffffffffffff81111561167657600080fd5b60018102360382131561168857600080fd5b8080601f016020809104026020016040519081016040528093929190818152602001838380828437600081840152601f19601f820116905080830192505050505050508780602001803560016020038336030381126116e657600080fd5b8083019250508135905060208201915067ffffffffffffffff81111561170b57600080fd5b60018102360382131561171d57600080fd5b8080601f016020809104026020016040519081016040528093929190818152602001838380828437600081840152601f19601f8201169050808301925050505050505088806040018035600160200383360303811261177b57600080fd5b8083019250508135905060208201915067ffffffffffffffff8111156117a057600080fd5b6001810236038213156117b257600080fd5b8080601f016020809104026020016040519081016040528093929190818152602001838380828437600081840152601f19601f820116905080830192505050505050508960a00135338b606001602061180e9190810190614702565b8c806080018035600160200383360303811261182957600080fd5b8083019250508135905060208201915067ffffffffffffffff81111561184e57600080fd5b60018102360382131561186057600080fd5b8080601f016020809104026020016040519081016040528093929190818152602001838380828437600081840152601f19601f820116905080830192505050505050508d60c001356139df565b5050505050565b816040518060400160405280600581526020017f41646d696e000000000000000000000000000000000000000000000000000000815250600173__RolesLib______________________________63333fcfc7846003018433856040518563ffffffff1660e01b815260040161192d94939291906152d4565b60206040518083038186803b15801561194557600080fd5b505af4158015611959573d6000803e3d6000fd5b505050506040513d601f19601f8201168201806040525061197d919081019061436f565b6119bc576040517f08c379a00000000000000000000000000000000000000000000000000000000081526004016119b390615274565b60405180910390fd5b7f1b94261406b3b1713d79e79bf86093c8843a90ce8a8c467a094565ae87774f3033856040516119ed929190614fe5565b60405180910390a1611a3a856003016040518060400160405280600481526020017f5573657200000000000000000000000000000000000000000000000000000000815250866002613829565b5050505050565b826040518060400160405280600581526020017f41646d696e000000000000000000000000000000000000000000000000000000815250600173__RolesLib______________________________63333fcfc7846003018433856040518563ffffffff1660e01b8152600401611aba94939291906152d4565b60206040518083038186803b158015611ad257600080fd5b505af4158015611ae6573d6000803e3d6000fd5b505050506040513d601f19601f82011682018060405250611b0a919081019061436f565b611b49576040517f08c379a0000000000000000000000000000000000000000000000000000000008152600401611b4090615274565b60405180910390fd5b7fe8a11072dbade6f6a8c7f24824c31000d4d22e3600cb98c97b9555a053d4bd8a338686604051611b7c9392919061500e565b60405180910390a18560060160009054906101000a900473ffffffffffffffffffffffffffffffffffffffff1673ffffffffffffffffffffffffffffffffffffffff166340c10f1986866040518363ffffffff1660e01b8152600401611be39291906150fe565b602060405180830381600087803b158015611bfd57600080fd5b505af1158015611c11573d6000803e3d6000fd5b505050506040513d601f19601f82011682018060405250611c35919081019061436f565b50505050505050565b816040518060400160405280600481526020017f5573657200000000000000000000000000000000000000000000000000000000815250600273__RolesLib______________________________63333fcfc7846003018433856040518563ffffffff1660e01b8152600401611cb794939291906152d4565b60206040518083038186803b158015611ccf57600080fd5b505af4158015611ce3573d6000803e3d6000fd5b505050506040513d601f19601f82011682018060405250611d07919081019061436f565b611d46576040517f08c379a0000000000000000000000000000000000000000000000000000000008152600401611d3d90615274565b60405180910390fd5b7f79331edcabcaf52ab829c565c36feac85a28afc9977acf87ea3628950c03568d3385604051611d779291906150d5565b60405180910390a1846000016002016040518060400160405280600681526020017f5265776172640000000000000000000000000000000000000000000000000000815250604051611dc99190614f58565b90815260200160405180910390206001016000858152602001908152602001600020600301548560060160009054906101000a900473ffffffffffffffffffffffffffffffffffffffff1673ffffffffffffffffffffffffffffffffffffffff1663dd62ed3e33306040518363ffffffff1660e01b8152600401611e4e929190614fbc565b60206040518083038186803b158015611e6657600080fd5b505afa158015611e7a573d6000803e3d6000fd5b505050506040513d601f19601f82011682018060405250611e9e91908101906146d9565b1015611edf576040517f08c379a0000000000000000000000000000000000000000000000000000000008152600401611ed690615254565b60405180910390fd5b8460060160009054906101000a900473ffffffffffffffffffffffffffffffffffffffff1673ffffffffffffffffffffffffffffffffffffffff166379cc679033876000016002016040518060400160405280600681526020017f5265776172640000000000000000000000000000000000000000000000000000815250604051611f6a9190614f58565b90815260200160405180910390206001016000888152602001908152602001600020600301546040518363ffffffff1660e01b8152600401611fad9291906150d5565b600060405180830381600087803b158015611fc757600080fd5b505af1158015611fdb573d6000803e3d6000fd5b50505050612033856000016040518060400160405280600681526020017f5265776172640000000000000000000000000000000000000000000000000000815250863360405180602001604052806000815250613479565b5050505050565b816040518060400160405280600581526020017f41646d696e000000000000000000000000000000000000000000000000000000815250600173__RolesLib______________________________63333fcfc7846003018433856040518563ffffffff1660e01b81526004016120b394939291906152d4565b60206040518083038186803b1580156120cb57600080fd5b505af41580156120df573d6000803e3d6000fd5b505050506040513d601f19601f82011682018060405250612103919081019061436f565b612142576040517f08c379a000000000000000000000000000000000000000000000000000000000815260040161213990615274565b60405180910390fd5b7f2ca8d8b2ebfa0f7ff682ecba96d545fb37dfc0165fd1017b71b1bba6a492ab1a33856040516121739291906150d5565b60405180910390a16000856000016002016040518060400160405280600481526020017f5461736b000000000000000000000000000000000000000000000000000000008152506040516121c79190614f58565b9081526020016040518091039020600101600086815260200190815260200160002060040160159054906101000a900460ff1660ff161461223d576040517f08c379a0000000000000000000000000000000000000000000000000000000008152600401612234906152b4565b60405180910390fd5b612282856000016040518060400160405280600481526020017f5461736b00000000000000000000000000000000000000000000000000000000815250866001613bf8565b5050505050565b60008160060160009054906101000a900473ffffffffffffffffffffffffffffffffffffffff169050919050565b600060606000806122c6613d2c565b6060600080898060200190516122df919081019061477f565b80905080995081975082985050505088806020019051612302919081019061431b565b8191508090508094508195505050600090505b8560ff168110156123a7578460ff1684826005811061233057fe5b602002015160ff16111561234357600197505b8460ff1684826005811061235357fe5b602002015160ff161415612368576001820191505b6001860360ff16811180156123905750600084826005811061238657fe5b602002015160ff16115b1561239a57600197505b8080600101915050612315565b6000808360ff16111561246b57600091505b8351821015612458577f0a000000000000000000000000000000000000000000000000000000000000007effffffffffffffffffffffffffffffffffffffffffffffffffffffffffffff191684838151811061241157fe5b602001015160f81c60f81b7effffffffffffffffffffffffffffffffffffffffffffffffffffffffffffff1916141561244b576001810190505b81806001019250506123b9565b8260ff168160ff161461246a57600198505b5b505050505050505092915050565b816040518060400160405280600581526020017f41646d696e000000000000000000000000000000000000000000000000000000815250600273__RolesLib______________________________63333fcfc7846003018433856040518563ffffffff1660e01b81526004016124f294939291906152d4565b60206040518083038186803b15801561250a57600080fd5b505af415801561251e573d6000803e3d6000fd5b505050506040513d601f19601f82011682018060405250612542919081019061436f565b612581576040517f08c379a000000000000000000000000000000000000000000000000000000000815260040161257890615274565b60405180910390fd5b7f2fbf043b3496ffa4fee9402ff8bd239c1d7870465d0d095438df831b81e0defb33856040516125b2929190614fbc565b60405180910390a1838560060160006101000a81548173ffffffffffffffffffffffffffffffffffffffff021916908373ffffffffffffffffffffffffffffffffffffffff1602179055505050505050565b60606040518060400160405280600681526020017f5265776172640000000000000000000000000000000000000000000000000000815250905090565b6040518060200160405280600081525081565b60008260060160009054906101000a900473ffffffffffffffffffffffffffffffffffffffff1673ffffffffffffffffffffffffffffffffffffffff166370a08231836040518263ffffffff1660e01b81526004016126b39190614f86565b60206040518083038186803b1580156126cb57600080fd5b505afa1580156126df573d6000803e3d6000fd5b505050506040513d601f19601f8201168201806040525061270391908101906146d9565b905092915050565b816040518060400160405280600581526020017f41646d696e000000000000000000000000000000000000000000000000000000815250600173__RolesLib______________________________63333fcfc7846003018433856040518563ffffffff1660e01b815260040161278494939291906152d4565b60206040518083038186803b15801561279c57600080fd5b505af41580156127b0573d6000803e3d6000fd5b505050506040513d601f19601f820116820180604052506127d4919081019061436f565b612813576040517f08c379a000000000000000000000000000000000000000000000000000000000815260040161280a90615274565b60405180910390fd5b7f627b6e79efa507d7a350bdc0b7739582863a8b349b18ebe3854e0b81defb76f63385604051612844929190615045565b60405180910390a16128c5856003016040518060400160405280600781526020017f506172746e65720000000000000000000000000000000000000000000000000081525086606001516001886000015189602001518a604001516040516020016128b1939291906151a8565b604051602081830303815290604052612efc565b5050505050565b6040518060400160405280600481526020017f557365720000000000000000000000000000000000000000000000000000000081525081565b600060018251111561291657600190505b60008260008151811061292557fe5b602001015160f81c60f81b60f81c905060058160ff161061294557600191505b50919050565b816040518060400160405280600781526020017f506172746e657200000000000000000000000000000000000000000000000000815250600173__RolesLib______________________________63333fcfc7846003018433856040518563ffffffff1660e01b81526004016129c494939291906152d4565b60206040518083038186803b1580156129dc57600080fd5b505af41580156129f0573d6000803e3d6000fd5b505050506040513d601f19601f82011682018060405250612a14919081019061436f565b612a53576040517f08c379a0000000000000000000000000000000000000000000000000000000008152600401612a4a90615274565b60405180910390fd5b7fa2b2d504cf91d423834b650ca526e4def7b6ba4041a2921bdb2d4a540c80aef93385604051612a84929190615075565b60405180910390a1612caa856000016040518060400160405280600681526020017f5265776172640000000000000000000000000000000000000000000000000000815250868060000180356001602003833603038112612ae457600080fd5b8083019250508135905060208201915067ffffffffffffffff811115612b0957600080fd5b600181023603821315612b1b57600080fd5b8080601f016020809104026020016040519081016040528093929190818152602001838380828437600081840152601f19601f82011690508083019250505050505050878060200180356001602003833603038112612b7957600080fd5b8083019250508135905060208201915067ffffffffffffffff811115612b9e57600080fd5b600181023603821315612bb057600080fd5b8080601f016020809104026020016040519081016040528093929190818152602001838380828437600081840152601f19601f82011690508083019250505050505050888060400180356001602003833603038112612c0e57600080fd5b8083019250508135905060208201915067ffffffffffffffff811115612c3357600080fd5b600181023603821315612c4557600080fd5b8080601f016020809104026020016040519081016040528093929190818152602001838380828437600081840152601f19601f820116905080830192505050505050508960600135336000604051806020016040528060008152508d608001356139df565b5050505050565b6040518060400160405280600481526020017f5461736b0000000000000000000000000000000000000000000000000000000081525081565b60606040518060400160405280600781526020017f506172746e657200000000000000000000000000000000000000000000000000815250905090565b816040518060400160405280600581526020017f41646d696e000000000000000000000000000000000000000000000000000000815250600173__RolesLib______________________________63333fcfc7846003018433856040518563ffffffff1660e01b8152600401612da094939291906152d4565b60206040518083038186803b158015612db857600080fd5b505af4158015612dcc573d6000803e3d6000fd5b505050506040513d601f19601f82011682018060405250612df0919081019061436f565b612e2f576040517f08c379a0000000000000000000000000000000000000000000000000000000008152600401612e2690615274565b60405180910390fd5b7ffa0b914ee8a390a3031505d988368f8ba1592f1a2fefb20447858ec91d0cd8923385604051612e609291906150d5565b60405180910390a1612ead856000016040518060400160405280600681526020017f5265776172640000000000000000000000000000000000000000000000000000815250866001613bf8565b5050505050565b60606040518060400160405280600481526020017f5461736b00000000000000000000000000000000000000000000000000000000815250905090565b66038d7ea4c6800081565b60018560020185604051612f109190614f6f565b90815260200160405180910390206000016000828254019250508190555060405180604001604052808360ff168152602001828152508560020185604051612f589190614f6f565b908152602001604051809103902060030160008573ffffffffffffffffffffffffffffffffffffffff1673ffffffffffffffffffffffffffffffffffffffff16815260200190815260200160002060008201518160000160006101000a81548160ff021916908360ff1602179055506020820151816001019080519060200190612fe3929190613d4e565b50905050828560020185604051612ffa9190614f6f565b90815260200160405180910390206001016000876002018760405161301f9190614f6f565b908152602001604051809103902060000154815260200190815260200160002060006101000a81548173ffffffffffffffffffffffffffffffffffffffff021916908373ffffffffffffffffffffffffffffffffffffffff160217905550846002018460405161308f9190614f6f565b90815260200160405180910390206000015485600201856040516130b39190614f6f565b908152602001604051809103902060020160008573ffffffffffffffffffffffffffffffffffffffff1673ffffffffffffffffffffffffffffffffffffffff168152602001908152602001600020819055505050505050565b613117838383613c4e565b613156576040517f08c379a000000000000000000000000000000000000000000000000000000000815260040161314d90615214565b60405180910390fd5b82600201826040516131689190614f6f565b90815260200160405180910390206001016000846002018460405161318d9190614f6f565b908152602001604051809103902060000154815260200190815260200160002060009054906101000a900473ffffffffffffffffffffffffffffffffffffffff1683600201836040516131e09190614f6f565b9081526020016040518091039020600101600085600201856040516132059190614f6f565b908152602001604051809103902060020160008573ffffffffffffffffffffffffffffffffffffffff1673ffffffffffffffffffffffffffffffffffffffff16815260200190815260200160002054815260200190815260200160002060006101000a81548173ffffffffffffffffffffffffffffffffffffffff021916908373ffffffffffffffffffffffffffffffffffffffff16021790555082600201826040516132b29190614f6f565b908152602001604051809103902060020160008273ffffffffffffffffffffffffffffffffffffffff1673ffffffffffffffffffffffffffffffffffffffff1681526020019081526020016000205483600201836040516133139190614f6f565b9081526020016040518091039020600201600085600201856040516133389190614f6f565b90815260200160405180910390206001016000876002018760405161335d9190614f6f565b908152602001604051809103902060000154815260200190815260200160002060009054906101000a900473ffffffffffffffffffffffffffffffffffffffff1673ffffffffffffffffffffffffffffffffffffffff1673ffffffffffffffffffffffffffffffffffffffff16815260200190815260200160002081905550600083600201836040516133f09190614f6f565b908152602001604051809103902060020160008373ffffffffffffffffffffffffffffffffffffffff1673ffffffffffffffffffffffffffffffffffffffff16815260200190815260200160002081905550600183600201836040516134569190614f6f565b908152602001604051809103902060000160008282540392505081905550505050565b6001856002018560405161348d9190614f6f565b9081526020016040518091039020600101600085815260200190815260200160002060070160008282540192505081905550600085600201856040516134d39190614f6f565b9081526020016040518091039020600101600085815260200190815260200160002060070154905080866002018660405161350e9190614f6f565b9081526020016040518091039020600101600086815260200190815260200160002060080160008573ffffffffffffffffffffffffffffffffffffffff1673ffffffffffffffffffffffffffffffffffffffff168152602001908152602001600020819055508286600201866040516135879190614f6f565b90815260200160405180910390206001016000868152602001908152602001600020600901600083815260200190815260200160002060006101000a81548173ffffffffffffffffffffffffffffffffffffffff021916908373ffffffffffffffffffffffffffffffffffffffff16021790555081866002018660405161360e9190614f6f565b90815260200160405180910390206001016000868152602001908152602001600020600a0160008573ffffffffffffffffffffffffffffffffffffffff1673ffffffffffffffffffffffffffffffffffffffff1681526020019081526020016000209080519060200190613683929190613dce565b50505050505050565b816040518060400160405280600581526020017f41646d696e000000000000000000000000000000000000000000000000000000815250600173__RolesLib______________________________63333fcfc7846003018433856040518563ffffffff1660e01b815260040161370594939291906152d4565b60206040518083038186803b15801561371d57600080fd5b505af4158015613731573d6000803e3d6000fd5b505050506040513d601f19601f82011682018060405250613755919081019061436f565b613794576040517f08c379a000000000000000000000000000000000000000000000000000000000815260040161378b90615274565b60405180910390fd5b7f3991f82e9de7452553a54f55bfb32267468069a5c08dd6eb29f7ab9e99b697d633856040516137c5929190614fbc565b60405180910390a1613822856003016040518060400160405280600481526020017f557365720000000000000000000000000000000000000000000000000000000081525086600160405180602001604052806000815250612efc565b5050505050565b613834848484613c4e565b613873576040517f08c379a000000000000000000000000000000000000000000000000000000000815260040161386a90615294565b60405180910390fd5b8084600201846040516138869190614f6f565b908152602001604051809103902060030160008473ffffffffffffffffffffffffffffffffffffffff1673ffffffffffffffffffffffffffffffffffffffff16815260200190815260200160002060000160006101000a81548160ff021916908360ff16021790555050505050565b60018260000160008282829054906101000a900460ff160192506101000a81548160ff021916908360ff160217905550808260010160008460000160009054906101000a900460ff1660ff1660ff1681526020019081526020016000209080519060200190613965929190613e4e565b505050565b60018260000160008282829054906101000a900460ff160192506101000a81548160ff021916908360ff160217905550808260010160008460000160009054906101000a900460ff1660ff1660ff16815260200190815260200160002090805190602001906139da929190613e4e565b505050565b60018a6002018a6040516139f39190614f6f565b9081526020016040518091039020600001600082825401925050819055506040518061014001604052808981526020018881526020018781526020018681526020018573ffffffffffffffffffffffffffffffffffffffff1681526020018460ff168152602001600060ff16815260200183815260200182815260200160008152508a6002018a604051613a879190614f6f565b908152602001604051809103902060010160008c6002018c604051613aac9190614f6f565b90815260200160405180910390206000015481526020019081526020016000206000820151816000019080519060200190613ae8929190613ece565b506020820151816001019080519060200190613b05929190613ece565b506040820151816002019080519060200190613b22929190613ece565b506060820151816003015560808201518160040160006101000a81548173ffffffffffffffffffffffffffffffffffffffff021916908373ffffffffffffffffffffffffffffffffffffffff16021790555060a08201518160040160146101000a81548160ff021916908360ff16021790555060c08201518160040160156101000a81548160ff021916908360ff16021790555060e0820151816005019080519060200190613bd2929190613d4e565b506101008201518160060155610120820151816007015590505050505050505050505050565b808460020184604051613c0b9190614f6f565b9081526020016040518091039020600101600084815260200190815260200160002060040160156101000a81548160ff021916908360ff16021790555050505050565b60008073ffffffffffffffffffffffffffffffffffffffff168273ffffffffffffffffffffffffffffffffffffffff161415613cbf576040517f08c379a0000000000000000000000000000000000000000000000000000000008152600401613cb690615234565b60405180910390fd5b60008460020184604051613cd39190614f6f565b908152602001604051809103902060020160008473ffffffffffffffffffffffffffffffffffffffff1673ffffffffffffffffffffffffffffffffffffffff168152602001908152602001600020541190509392505050565b6040518060a00160405280600590602082028038833980820191505090505090565b828054600181600116156101000203166002900490600052602060002090601f016020900481019282601f10613d8f57805160ff1916838001178555613dbd565b82800160010185558215613dbd579182015b82811115613dbc578251825591602001919060010190613da1565b5b509050613dca9190613f4e565b5090565b828054600181600116156101000203166002900490600052602060002090601f016020900481019282601f10613e0f57805160ff1916838001178555613e3d565b82800160010185558215613e3d579182015b82811115613e3c578251825591602001919060010190613e21565b5b509050613e4a9190613f4e565b5090565b828054600181600116156101000203166002900490600052602060002090601f016020900481019282601f10613e8f57805160ff1916838001178555613ebd565b82800160010185558215613ebd579182015b82811115613ebc578251825591602001919060010190613ea1565b5b509050613eca9190613f4e565b5090565b828054600181600116156101000203166002900490600052602060002090601f016020900481019282601f10613f0f57805160ff1916838001178555613f3d565b82800160010185558215613f3d579182015b82811115613f3c578251825591602001919060010190613f21565b5b509050613f4a9190613f4e565b5090565b613f7091905b80821115613f6c576000816000905550600101613f54565b5090565b90565b600081359050613f8281615665565b92915050565b600081359050613f978161567c565b92915050565b600082601f830112613fae57600080fd5b6005613fc1613fbc82615368565b61533b565b91508183856020840282011115613fd757600080fd5b60005b838110156140075781613fed8882614306565b845260208401935060208301925050600181019050613fda565b5050505092915050565b60008151905061402081615693565b92915050565b60008083601f84011261403857600080fd5b8235905067ffffffffffffffff81111561405157600080fd5b60208301915083600182028301111561406957600080fd5b9250929050565b600082601f83011261408157600080fd5b815161409461408f8261538a565b61533b565b915080825260208301602083018583830111156140b057600080fd5b6140bb838284615621565b50505092915050565b600082601f8301126140d557600080fd5b81356140e86140e3826153b6565b61533b565b9150808252602083016020830185838301111561410457600080fd5b61410f838284615612565b50505092915050565b600082601f83011261412957600080fd5b813561413c614137826153e2565b61533b565b9150808252602083016020830185838301111561415857600080fd5b614163838284615612565b50505092915050565b600082601f83011261417d57600080fd5b815161419061418b826153e2565b61533b565b915080825260208301602083018583830111156141ac57600080fd5b6141b7838284615621565b50505092915050565b6000608082840312156141d257600080fd5b6141dc608061533b565b9050600082013567ffffffffffffffff8111156141f857600080fd5b61420484828501614118565b600083015250602082013567ffffffffffffffff81111561422457600080fd5b61423084828501614118565b602083015250604082013567ffffffffffffffff81111561425057600080fd5b61425c84828501614118565b604083015250606061427084828501613f73565b60608301525092915050565b600060a0828403121561428e57600080fd5b81905092915050565b600060e082840312156142a957600080fd5b81905092915050565b6000813590506142c1816156aa565b92915050565b6000813590506142d6816156c1565b92915050565b6000815190506142eb816156c1565b92915050565b600081359050614300816156d8565b92915050565b600081519050614315816156d8565b92915050565b60008060c0838503121561432e57600080fd5b600061433c85828601613f9d565b92505060a083015167ffffffffffffffff81111561435957600080fd5b61436585828601614070565b9150509250929050565b60006020828403121561438157600080fd5b600061438f84828501614011565b91505092915050565b6000602082840312156143aa57600080fd5b600082013567ffffffffffffffff8111156143c457600080fd5b6143d0848285016140c4565b91505092915050565b600080604083850312156143ec57600080fd5b600083013567ffffffffffffffff81111561440657600080fd5b614412858286016140c4565b925050602083013567ffffffffffffffff81111561442f57600080fd5b61443b858286016140c4565b9150509250929050565b60006020828403121561445757600080fd5b6000614465848285016142b2565b91505092915050565b6000806040838503121561448157600080fd5b600061448f858286016142b2565b92505060206144a085828601613f73565b9150509250929050565b600080604083850312156144bd57600080fd5b60006144cb858286016142b2565b92505060206144dc85828601613f88565b9150509250929050565b6000806000606084860312156144fb57600080fd5b6000614509868287016142b2565b935050602061451a86828701613f73565b925050604061452b868287016142c7565b9150509250925092565b6000806040838503121561454857600080fd5b6000614556858286016142b2565b925050602083013567ffffffffffffffff81111561457357600080fd5b61457f858286016141c0565b9150509250929050565b6000806040838503121561459c57600080fd5b60006145aa858286016142b2565b925050602083013567ffffffffffffffff8111156145c757600080fd5b6145d38582860161427c565b9150509250929050565b600080604083850312156145f057600080fd5b60006145fe858286016142b2565b925050602083013567ffffffffffffffff81111561461b57600080fd5b61462785828601614297565b9150509250929050565b6000806040838503121561464457600080fd5b6000614652858286016142b2565b9250506020614663858286016142c7565b9150509250929050565b6000806000806060858703121561468357600080fd5b6000614691878288016142b2565b94505060206146a2878288016142c7565b935050604085013567ffffffffffffffff8111156146bf57600080fd5b6146cb87828801614026565b925092505092959194509250565b6000602082840312156146eb57600080fd5b60006146f9848285016142dc565b91505092915050565b60006020828403121561471457600080fd5b6000614722848285016142f1565b91505092915050565b6000806040838503121561473e57600080fd5b600061474c85828601614306565b925050602083015167ffffffffffffffff81111561476957600080fd5b6147758582860161416c565b9150509250929050565b60008060006060848603121561479457600080fd5b60006147a286828701614306565b93505060206147b386828701614306565b925050604084015167ffffffffffffffff8111156147d057600080fd5b6147dc86828701614070565b9150509250925092565b6147ef816155dc565b82525050565b6147fe816155dc565b82525050565b61480d8161557d565b82525050565b61481c8161556b565b82525050565b61482b8161556b565b82525050565b61483a8161556b565b82525050565b6148498161558f565b82525050565b600061485b838561542f565b9350614868838584615612565b61487183615654565b840190509392505050565b60006148878261540e565b6148918185615440565b93506148a1818560208601615621565b6148aa81615654565b840191505092915050565b60006148c18385615451565b93506148ce838584615612565b6148d783615654565b840190509392505050565b60006148ed82615424565b6148f78185615473565b9350614907818560208601615621565b61491081615654565b840191505092915050565b600061492682615424565b6149308185615484565b9350614940818560208601615621565b80840191505092915050565b600061495782615419565b6149618185615451565b9350614971818560208601615621565b61497a81615654565b840191505092915050565b600061499082615419565b61499a8185615462565b93506149aa818560208601615621565b6149b381615654565b840191505092915050565b60006149c982615419565b6149d38185615473565b93506149e3818560208601615621565b6149ec81615654565b840191505092915050565b6000614a0282615419565b614a0c8185615484565b9350614a1c818560208601615621565b80840191505092915050565b6000614a35602d83615462565b91507f5461736b3a207461736b2073686f756c6420626520616363657074656420626560008301527f666f726520636f6d706c657465000000000000000000000000000000000000006020830152604082019050919050565b6000614a9b602183615462565b91507f526f6c65733a206163636f756e7420646f206e6f742068617665206120726f6c60008301527f65000000000000000000000000000000000000000000000000000000000000006020830152604082019050919050565b6000614b01602283615462565b91507f526f6c65733a206163636f756e7420697320746865207a65726f20616464726560008301527f73730000000000000000000000000000000000000000000000000000000000006020830152604082019050919050565b6000614b67601f83615462565b91507f557365722073686f756c64206861766520656e6f7567682062616c616e6365006000830152602082019050919050565b6000614ba7604683615462565b91507f526f6c6573436f6e74726f6c6c65723a2063616c6c657220646f6573206e6f7460008301527f2068617665206120726571756972656420726f6c6520616e642061636365737360208301527f206c6576656c00000000000000000000000000000000000000000000000000006040830152606082019050919050565b6000614c33602883615462565b91507f526f6c65733a2063616e206e6f7420757064617465206163636f756e743a206e60008301527f6f742065786973740000000000000000000000000000000000000000000000006020830152604082019050919050565b6000614c99602183615462565b91507f5461736b3a207461736b2073686f756c64206265206e6f74206163636570746560008301527f64000000000000000000000000000000000000000000000000000000000000006020830152604082019050919050565b60006080830160008301518482036000860152614d0f828261494c565b91505060208301518482036020860152614d29828261494c565b91505060408301518482036040860152614d43828261494c565b9150506060830151614d586060860182614813565b508091505092915050565b600060a08301614d7660008401846154e6565b8583036000870152614d898382846148b5565b92505050614d9a60208401846154e6565b8583036020870152614dad8382846148b5565b92505050614dbe60408401846154e6565b8583036040870152614dd18382846148b5565b92505050614de2606084018461553d565b614def6060860182614f0d565b50614dfd608084018461553d565b614e0a6080860182614f0d565b508091505092915050565b600060e08301614e2860008401846154e6565b8583036000870152614e3b8382846148b5565b92505050614e4c60208401846154e6565b8583036020870152614e5f8382846148b5565b92505050614e7060408401846154e6565b8583036040870152614e838382846148b5565b92505050614e946060840184615554565b614ea16060860182614f3a565b50614eaf608084018461548f565b8583036080870152614ec283828461484f565b92505050614ed360a084018461553d565b614ee060a0860182614f0d565b50614eee60c084018461553d565b614efb60c0860182614f0d565b508091505092915050565b8082525050565b614f16816155c5565b82525050565b614f25816155c5565b82525050565b614f34816155c5565b82525050565b614f43816155cf565b82525050565b614f52816155cf565b82525050565b6000614f6482846149f7565b915081905092915050565b6000614f7b828461491b565b915081905092915050565b6000602082019050614f9b6000830184614822565b92915050565b6000602082019050614fb66000830184614831565b92915050565b6000604082019050614fd160008301856147e6565b614fde6020830184614822565b9392505050565b6000604082019050614ffa60008301856147e6565b6150076020830184614804565b9392505050565b600060608201905061502360008301866147e6565b6150306020830185614822565b61503d6040830184614f1c565b949350505050565b600060408201905061505a60008301856147e6565b818103602083015261506c8184614cf2565b90509392505050565b600060408201905061508a60008301856147e6565b818103602083015261509c8184614d63565b90509392505050565b60006040820190506150ba60008301856147e6565b81810360208301526150cc8184614e15565b90509392505050565b60006040820190506150ea60008301856147e6565b6150f76020830184614f1c565b9392505050565b60006040820190506151136000830185614822565b6151206020830184614f1c565b9392505050565b600060208201905061513c6000830184614840565b92915050565b6000602082019050818103600083015261515c818461487c565b905092915050565b6000602082019050818103600083015261517e81846149be565b905092915050565b600060208201905081810360008301526151a081846148e2565b905092915050565b600060608201905081810360008301526151c28186614985565b905081810360208301526151d68185614985565b905081810360408301526151ea8184614985565b9050949350505050565b6000602082019050818103600083015261520d81614a28565b9050919050565b6000602082019050818103600083015261522d81614a8e565b9050919050565b6000602082019050818103600083015261524d81614af4565b9050919050565b6000602082019050818103600083015261526d81614b5a565b9050919050565b6000602082019050818103600083015261528d81614b9a565b9050919050565b600060208201905081810360008301526152ad81614c26565b9050919050565b600060208201905081810360008301526152cd81614c8c565b9050919050565b60006080820190506152e96000830187614f06565b81810360208301526152fb81866148e2565b905061530a60408301856147f5565b6153176060830184614f49565b95945050505050565b60006020820190506153356000830184614f2b565b92915050565b6000604051905081810181811067ffffffffffffffff8211171561535e57600080fd5b8060405250919050565b600067ffffffffffffffff82111561537f57600080fd5b602082029050919050565b600067ffffffffffffffff8211156153a157600080fd5b601f19601f8301169050602081019050919050565b600067ffffffffffffffff8211156153cd57600080fd5b601f19601f8301169050602081019050919050565b600067ffffffffffffffff8211156153f957600080fd5b601f19601f8301169050602081019050919050565b600081519050919050565b600081519050919050565b600081519050919050565b600082825260208201905092915050565b600082825260208201905092915050565b600082825260208201905092915050565b600082825260208201905092915050565b600082825260208201905092915050565b600081905092915050565b600080833560016020038436030381126154a857600080fd5b83810192508235915060208301925067ffffffffffffffff8211156154cc57600080fd5b6001820236038413156154de57600080fd5b509250929050565b600080833560016020038436030381126154ff57600080fd5b83810192508235915060208301925067ffffffffffffffff82111561552357600080fd5b60018202360384131561553557600080fd5b509250929050565b600061554c60208401846142c7565b905092915050565b600061556360208401846142f1565b905092915050565b6000615576826155a5565b9050919050565b6000615588826155a5565b9050919050565b60008115159050919050565b6000819050919050565b600073ffffffffffffffffffffffffffffffffffffffff82169050919050565b6000819050919050565b600060ff82169050919050565b60006155e7826155ee565b9050919050565b60006155f982615600565b9050919050565b600061560b826155a5565b9050919050565b82818337600083830152505050565b60005b8381101561563f578082015181840152602081019050615624565b8381111561564e576000848401525b50505050565b6000601f19601f8301169050919050565b61566e8161556b565b811461567957600080fd5b50565b6156858161557d565b811461569057600080fd5b50565b61569c8161558f565b81146156a757600080fd5b50565b6156b38161559b565b81146156be57600080fd5b50565b6156ca816155c5565b81146156d557600080fd5b50565b6156e1816155cf565b81146156ec57600080fd5b5056fea365627a7a723158202223dd4e44c3114b6ec3054cfd9ce6fdbb4be4154da0a588698ac8742c58e2876c6578706572696d656e74616cf564736f6c63430005100040",
  "source": "pragma solidity >=0.4.0 <0.7.0;\npragma experimental ABIEncoderV2;\n\nimport \"./ItemsLib.sol\";\nimport \"./RolesLib.sol\";\nimport \"./IERC20Extended.sol\";\n\nlibrary Core {\n\n\tstruct Store {\n\t\tItemsLib.Store items;\n\t\tRolesLib.Store roles;\n\t\tIERC20Extended tokenX;\n\t}\n\n\tstruct Reward {\n\t\tstring caption;\n\t\tstring description;\n\t\tstring image;\n\t\tuint value;\n\t\taddress owner;\n\t\tuint8 status;\n\t\tuint totalAmount;\n\t\tuint resultsAmount;\n\t\tuint number;\n\t}\n\n\tstruct NewReward {\n\t\tstring caption;\n\t\tstring description;\n\t\tstring image;\n\t\tuint value;\n\t\tuint totalAmount;\n\t}\n\n\tstruct Task {\n\t\tstring caption;\n\t\tstring description;\n\t\tstring image;\n\t\tuint value;\n\t\taddress owner;\n\t\tuint8 status;\n\t\tuint8 itemType;\n\t\tbytes data;\n\t\tuint totalAmount;\n\t\tuint resultsAmount;\n\t\tuint number;\n\t}\n\n\tstruct NewTask {\n\t\tstring caption;\n\t\tstring description;\n\t\tstring image;\n\t\tuint8 itemType;\n\t\tbytes data;\n\t\tuint value;\n\t\tuint totalAmount;\n\t}\n\n\n\tstruct RewardResult {\n\t\taddress account;\n\t\tbytes status;\n\t\tuint number;\n\t\tuint rewardId;\n\t}\n\n\tstruct TaskResult {\n\t\taddress account;\n\t\tbytes data;\n\t\tuint number;\n\t\tuint taskId;\n\t}\n\n\tstruct Partner {\n\t\tstring name;\n\t\tstring description;\n\t\tstring logo;\n\t\taddress account;\n\t\tuint number;\n\t}\n\n\tstruct NewPartner {\n\t\tstring name;\n\t\tstring description;\n\t\tstring logo;\n\t\taddress account;\n\t}\n\n\tstruct User {\n\t\taddress account;\n\t\tuint8 accessLevel;\n\t\tuint number;\n\t}\n\n\tstruct Admin {\n\t\taddress account;\n\t\tuint8 accessLevel;\n\t\tuint number;\n\t}\n\n\tstring constant public _REWARD = \"Reward\";\n\tstring constant public _TASK = \"Task\";\n\tstring constant public _ADMIN = \"Admin\";\n\tstring constant public _USER = \"User\";\n\tstring constant public _PARTNER = \"Partner\";\n\tuint constant public _COMPENSATION = 1_000_000_000_000_000;\n\tbytes constant public BYTES_ZERO = \"\";\n\n\tevent IncreaseContractEthBalance(address caller);\n\tevent IncreaseUserEthBalance(address caller, address payable acc);\n\n\tevent SetToken(address caller, address tokenAddress);\n\tevent AddTokenBalance(address caller, address partnerAddress, uint amount);\n\n\tevent AddUser(address caller, address acc);\n\tevent AddPartner(address caller, Core.NewPartner partner);\n\tevent AddAdmin(address caller, address acc);\n\tevent RemoveAdmin(address caller, address acc);\n\tevent UpgradeAdmin(address caller, address acc);\n\tevent UnlockTasksForUser(address caller, address payable acc);\n\tevent UnlockRewardsForUser(address caller, address payable acc);\n\n\tevent AddReward(address caller, Core.NewReward reward);\n\tevent CompleteReward(address caller, uint id);\n\tevent AcceptReward(address caller, uint id);\n\n\tevent AddTask(address caller, Core.NewTask task);\n\tevent CompleteTask(address caller, uint id);\n\tevent AcceptTask(address caller, uint id);\n\n\tmodifier only(Store storage core, string memory role, uint8 accessLevel) {\n\t\trequire(RolesLib.haveRoleAndAccess(core.roles, role, msg.sender, accessLevel), \"RolesController: caller does not have a required role and access level\");\n\t\t_;\n\t}\n\n\tfunction _constructor (Store storage core) public {\n\t\tItemsLib._addKind(core.items, _REWARD);\n\t\tItemsLib._addKind(core.items,  _TASK);\n\n\t\tRolesLib._addRole(core.roles, _ADMIN);\n\t\tRolesLib._addRole(core.roles, _USER);\n\t\tRolesLib._addRole(core.roles, _PARTNER);\n\t\tRolesLib._addSubject(core.roles, _ADMIN, msg.sender, 2, BYTES_ZERO);\n\t}\n\n\tfunction REWARD() public pure returns(string memory){ return _REWARD; }\n\tfunction TASK() public pure returns(string memory){ return _TASK; }\n\tfunction ADMIN() public pure returns(string memory){ return _ADMIN; }\n\tfunction USER() public pure returns(string memory){ return _USER; }\n\tfunction PARTNER() public pure returns(string memory){ return _PARTNER; }\n\tfunction COMPENSATION() public pure returns(uint){ return _COMPENSATION; }\n\n\n\n\tfunction setToken (Store storage core, address tokenAddress) external only(core, _ADMIN, 2) {\n\t\temit SetToken(msg.sender, tokenAddress);\n\t\tcore.tokenX = IERC20Extended(tokenAddress);\n\t}\n\n\tfunction addTokenBalance (Store storage core, address partnerAddress, uint amount) external only(core, _ADMIN, 1) {\n\t\temit AddTokenBalance(msg.sender, partnerAddress, amount);\n\t\tcore.tokenX.mint(partnerAddress, amount);\n\t}\n\n\tfunction getTokenBalance (Store storage core, address holder) external view returns(uint balance) {\n\t\treturn core.tokenX.balanceOf(holder);\n\t}\n\n\tfunction getTokenAddress (Store storage core) external view returns(address tokenAddress) {\n\t\treturn address(core.tokenX);\n\t}\n\n\tfunction _addUser(Store storage core, address userAddress) internal only(core, _ADMIN, 1) {\n\t\temit AddUser(msg.sender, userAddress);\n\t\tRolesLib._addSubject(core.roles, _USER, userAddress, 1, BYTES_ZERO);\n\t}\n\n\tfunction addPartner(Store storage core, NewPartner memory partner) public only(core, _ADMIN, 1) {\n\t\temit AddPartner(msg.sender, partner);\n\t\tRolesLib._addSubject(core.roles, _PARTNER, partner.account, 1,\n\t\t\tabi.encode(partner.name, partner.description, partner.logo)\n\t\t);\n\t}\n\n\tfunction addAdmin(Store storage core, address adminAddress) public only(core, _ADMIN, 2) {\n\t\temit AddAdmin(msg.sender, adminAddress);\n\t\tRolesLib._addSubject(core.roles, _ADMIN, adminAddress, 1, BYTES_ZERO);\n\t}\n\n\tfunction removeAdmin(Store storage core, address adminAddress) public only(core, _ADMIN, 2) {\n\t\temit RemoveAdmin(msg.sender, adminAddress);\n\t\tRolesLib._removeSubject(core.roles, _ADMIN, adminAddress);\n\t}\n\n\tfunction upgradeAdmin(Store storage core, address adminAddress) public only(core, _ADMIN, 2) {\n\t\temit UpgradeAdmin(msg.sender, adminAddress);\n\t\tRolesLib._updateAccessLevel(core.roles, _ADMIN, adminAddress, 2);\n\t}\n\n\tfunction addUserAndUnlockTasks(Store storage core, address payable userAddress) external only(core, _ADMIN, 1) {\n\t\t_addUser(core, userAddress);\n\t\temit UnlockTasksForUser(msg.sender, userAddress);\n\t\tRolesLib._updateAccessLevel(core.roles, _USER, userAddress, 1);\n\t}\n\n\tfunction unlockRewardsForUser (Store storage core, address payable userAddress) external only(core, _ADMIN, 1) {\n\t\temit UnlockRewardsForUser(msg.sender, userAddress);\n\t\t// require(rolesStore.roles[core, _USER].subjects[userAddress].accessLevel == 1, \"Roles: user should get 1 level first\");\n\t\tRolesLib._updateAccessLevel(core.roles, _USER, userAddress, 2);\n\t}\n\n\n\n\tfunction addReward(Store storage core, NewReward calldata reward) external only(core, _PARTNER, 1) {\n\t\temit AddReward(msg.sender, reward);\n\t\tItemsLib._addItem(core.items, _REWARD,\n\t\t\treward.caption,\n\t\t\treward.description,\n\t\t\treward.image,\n\t\t\treward.value,\n\t\t\tmsg.sender,\n\t\t\t0,\n\t\t\tBYTES_ZERO,\n\t\t\treward.totalAmount\n\t\t);\n\t}\n\n\tfunction completeReward(Store storage core, uint id) external only(core, _USER, 2) {\n\t\temit CompleteReward(msg.sender, id);\n\t\trequire(core.tokenX.allowance(msg.sender, address(this)) >= core.items.kinds[_REWARD].items[id].value, \"User should have enough balance\");\n\t\tcore.tokenX.burnFrom(msg.sender, core.items.kinds[_REWARD].items[id].value); // $$$    \n\n\t\tItemsLib._addResult(core.items, _REWARD, id, msg.sender, BYTES_ZERO);\n\t}\n\n\tfunction acceptReward(Store storage core, uint id) external only(core, _ADMIN, 1) {\n\t\temit AcceptReward(msg.sender, id);\n\t\tItemsLib._setStatus(core.items, _REWARD, id, 1);\n\t}\n\n\tfunction addTask(Store storage core, NewTask calldata task) external only(core, _PARTNER, 1) {\n\t\temit AddTask(msg.sender, task);\n\t\t// $$$   Partner   rewards   \n\t\tcore.tokenX.transferFrom(msg.sender, address(this), task.value * task.totalAmount);\n\t\tItemsLib._addItem(core.items, _TASK,\n\t\t\ttask.caption,\n\t\t\ttask.description,\n\t\t\ttask.image,\n\t\t\ttask.value,\n\t\t\tmsg.sender,\n\t\t\ttask.itemType,\n\t\t\ttask.data,\n\t\t\ttask.totalAmount\n\t\t);\n\t}\n\n\tfunction completeTask(Store storage core, uint id, bytes calldata result) external only(core, _USER, 1) {\n\t\temit CompleteTask(msg.sender, id);\n\t\trequire(core.items.kinds[_TASK].items[id].status == 1, \"Task: task should be accepted before complete\");\n\n\t\tcore.tokenX.transfer(msg.sender, core.items.kinds[_TASK].items[id].value); // $$$ User  reward      rewards\n\t\tItemsLib._addResult(core.items, _TASK, id, msg.sender, result);\n\t}\n\n\tfunction acceptTask(Store storage core, uint id) external only(core, _ADMIN, 1) {\n\t\temit AcceptTask(msg.sender, id);\n\t\trequire(core.items.kinds[_TASK].items[id].status == 0, \"Task: task should be not accepted\");\n\t\tItemsLib._setStatus(core.items, _TASK, id, 1);\n\t}\n\n\n\tfunction isIncorrectTaskResultT0 (bytes memory data, bytes memory result) public pure returns (bool isIncorrect) {\n\t\tbytes memory b;\n\t\tuint8 qAmount;\n\t\tuint8 standardAnsAmount;\n\n\t\tuint8[5] memory ansArr;\n\t\tbytes memory customAnsArr;\n\n\t\tuint8 customAnsAmount;\n\t\tuint i;\n\n\t\t(qAmount, standardAnsAmount, b) = abi.decode(data, (uint8, uint8, bytes));\n\t\t(ansArr, customAnsArr) = abi.decode(result, (uint8[5], bytes));\n\n\t\tfor (i = 0; i < uint(qAmount); i++) {\n\t\t\tif (ansArr[i] > standardAnsAmount) isIncorrect = true;\n\t\t\tif (ansArr[i] == standardAnsAmount) customAnsAmount += 1;\n\t\t\tif (i > uint(qAmount - 1) && ansArr[i] > 0) isIncorrect = true;\n\t\t}\n\n\t\tuint8 realCustomAnsAmount;\n\t\tif (customAnsAmount > 0) {\n\t\t\tfor (i = 0; i < customAnsArr.length; i++) {\n\t\t\t\tif (customAnsArr[i] == bytes1(\"\\n\")) realCustomAnsAmount += 1;\n\t\t\t}\n\n\t\t\tif (realCustomAnsAmount != customAnsAmount) isIncorrect = true;\n\t\t}\n\t}\n\n\tfunction isIncorrectTaskResultT1 (bytes memory result) public pure returns (bool isIncorrect) {\n\t\tif (result.length > 1) isIncorrect = true;\n\t\tuint8 res = uint8(result[0]);\n\t\tif (res >= 5) isIncorrect = true;\n\t}\n\n\tfunction isIncorrectTaskResultT2 (bytes memory result) public pure returns (bool isIncorrect) {\n\t\tuint8 rate;\n\t\tstring memory ansStr;\n\t\t(rate, ansStr) = abi.decode(result, (uint8, string));\n\t\tif (rate >= 10) isIncorrect = true;\n\t}\n}\n",
  "sourcePath": "/Users/dansergeev/Coding/PointX/mobile-client/contracts/Core.sol",
  "compiler": {
    "name": "solc",
    "version": "0.5.16+commit.9c3226ce.Emscripten.clang"
  },
  "schemaVersion": "3.0.23",
  "updatedAt": "2020-05-04T18:25:11.367Z",
  "networkType": "ethereum",
  "devdoc": {
    "methods": {}
  },
  "userdoc": {
    "methods": {}
  }
}