{
  "contractName": "PointX",
  "abi": [
    {
      "inputs": [],
      "payable": false,
      "stateMutability": "nonpayable",
      "type": "constructor"
    },
    {
      "constant": false,
      "inputs": [],
      "name": "increaseContractEthBalance",
      "outputs": [],
      "payable": true,
      "stateMutability": "payable",
      "type": "function"
    },
    {
      "constant": false,
      "inputs": [
        {
          "internalType": "address payable",
          "name": "acc",
          "type": "address"
        }
      ],
      "name": "increaseUserEthBalance",
      "outputs": [],
      "payable": true,
      "stateMutability": "payable",
      "type": "function"
    },
    {
      "constant": false,
      "inputs": [
        {
          "internalType": "address",
          "name": "tokenAddress",
          "type": "address"
        }
      ],
      "name": "setToken",
      "outputs": [],
      "payable": false,
      "stateMutability": "nonpayable",
      "type": "function"
    },
    {
      "constant": false,
      "inputs": [
        {
          "internalType": "address",
          "name": "partnerAddress",
          "type": "address"
        },
        {
          "internalType": "uint256",
          "name": "amount",
          "type": "uint256"
        }
      ],
      "name": "addTokenBalance",
      "outputs": [],
      "payable": false,
      "stateMutability": "nonpayable",
      "type": "function"
    },
    {
      "constant": true,
      "inputs": [
        {
          "internalType": "address",
          "name": "holder",
          "type": "address"
        }
      ],
      "name": "getTokenBalance",
      "outputs": [
        {
          "internalType": "uint256",
          "name": "balance",
          "type": "uint256"
        }
      ],
      "payable": false,
      "stateMutability": "view",
      "type": "function"
    },
    {
      "constant": true,
      "inputs": [],
      "name": "getTokenAddress",
      "outputs": [
        {
          "internalType": "address",
          "name": "tokenAddress",
          "type": "address"
        }
      ],
      "payable": false,
      "stateMutability": "view",
      "type": "function"
    },
    {
      "constant": false,
      "inputs": [
        {
          "internalType": "address",
          "name": "account",
          "type": "address"
        },
        {
          "internalType": "string",
          "name": "name",
          "type": "string"
        },
        {
          "internalType": "string",
          "name": "description",
          "type": "string"
        },
        {
          "internalType": "string",
          "name": "logo",
          "type": "string"
        }
      ],
      "name": "addPartner",
      "outputs": [],
      "payable": false,
      "stateMutability": "nonpayable",
      "type": "function"
    },
    {
      "constant": false,
      "inputs": [
        {
          "internalType": "address",
          "name": "acc",
          "type": "address"
        }
      ],
      "name": "addAdmin",
      "outputs": [],
      "payable": false,
      "stateMutability": "nonpayable",
      "type": "function"
    },
    {
      "constant": false,
      "inputs": [
        {
          "internalType": "address",
          "name": "acc",
          "type": "address"
        }
      ],
      "name": "removeAdmin",
      "outputs": [],
      "payable": false,
      "stateMutability": "nonpayable",
      "type": "function"
    },
    {
      "constant": false,
      "inputs": [
        {
          "internalType": "address",
          "name": "acc",
          "type": "address"
        }
      ],
      "name": "upgradeAdmin",
      "outputs": [],
      "payable": false,
      "stateMutability": "nonpayable",
      "type": "function"
    },
    {
      "constant": false,
      "inputs": [
        {
          "internalType": "address payable",
          "name": "acc",
          "type": "address"
        }
      ],
      "name": "addUserAndUnlockTasks",
      "outputs": [],
      "payable": false,
      "stateMutability": "nonpayable",
      "type": "function"
    },
    {
      "constant": false,
      "inputs": [
        {
          "internalType": "address payable",
          "name": "acc",
          "type": "address"
        }
      ],
      "name": "unlockRewardsForUser",
      "outputs": [],
      "payable": false,
      "stateMutability": "nonpayable",
      "type": "function"
    },
    {
      "constant": true,
      "inputs": [],
      "name": "getPartnersCount",
      "outputs": [
        {
          "internalType": "uint256",
          "name": "",
          "type": "uint256"
        }
      ],
      "payable": false,
      "stateMutability": "view",
      "type": "function"
    },
    {
      "constant": true,
      "inputs": [],
      "name": "getUsersCount",
      "outputs": [
        {
          "internalType": "uint256",
          "name": "",
          "type": "uint256"
        }
      ],
      "payable": false,
      "stateMutability": "view",
      "type": "function"
    },
    {
      "constant": true,
      "inputs": [],
      "name": "getAdminsCount",
      "outputs": [
        {
          "internalType": "uint256",
          "name": "",
          "type": "uint256"
        }
      ],
      "payable": false,
      "stateMutability": "view",
      "type": "function"
    },
    {
      "constant": true,
      "inputs": [
        {
          "internalType": "address",
          "name": "acc",
          "type": "address"
        }
      ],
      "name": "getUserByAddress",
      "outputs": [
        {
          "components": [
            {
              "internalType": "address",
              "name": "account",
              "type": "address"
            },
            {
              "internalType": "uint8",
              "name": "accessLevel",
              "type": "uint8"
            },
            {
              "internalType": "uint256",
              "name": "number",
              "type": "uint256"
            }
          ],
          "internalType": "struct Core.User",
          "name": "",
          "type": "tuple"
        }
      ],
      "payable": false,
      "stateMutability": "view",
      "type": "function"
    },
    {
      "constant": true,
      "inputs": [
        {
          "internalType": "uint256",
          "name": "num",
          "type": "uint256"
        }
      ],
      "name": "getUserByNumber",
      "outputs": [
        {
          "components": [
            {
              "internalType": "address",
              "name": "account",
              "type": "address"
            },
            {
              "internalType": "uint8",
              "name": "accessLevel",
              "type": "uint8"
            },
            {
              "internalType": "uint256",
              "name": "number",
              "type": "uint256"
            }
          ],
          "internalType": "struct Core.User",
          "name": "",
          "type": "tuple"
        }
      ],
      "payable": false,
      "stateMutability": "view",
      "type": "function"
    },
    {
      "constant": true,
      "inputs": [
        {
          "internalType": "address",
          "name": "acc",
          "type": "address"
        }
      ],
      "name": "getAdminByAddress",
      "outputs": [
        {
          "components": [
            {
              "internalType": "address",
              "name": "account",
              "type": "address"
            },
            {
              "internalType": "uint8",
              "name": "accessLevel",
              "type": "uint8"
            },
            {
              "internalType": "uint256",
              "name": "number",
              "type": "uint256"
            }
          ],
          "internalType": "struct Core.Admin",
          "name": "",
          "type": "tuple"
        }
      ],
      "payable": false,
      "stateMutability": "view",
      "type": "function"
    },
    {
      "constant": true,
      "inputs": [
        {
          "internalType": "uint256",
          "name": "num",
          "type": "uint256"
        }
      ],
      "name": "getAdminByNumber",
      "outputs": [
        {
          "components": [
            {
              "internalType": "address",
              "name": "account",
              "type": "address"
            },
            {
              "internalType": "uint8",
              "name": "accessLevel",
              "type": "uint8"
            },
            {
              "internalType": "uint256",
              "name": "number",
              "type": "uint256"
            }
          ],
          "internalType": "struct Core.Admin",
          "name": "",
          "type": "tuple"
        }
      ],
      "payable": false,
      "stateMutability": "view",
      "type": "function"
    },
    {
      "constant": true,
      "inputs": [
        {
          "internalType": "address",
          "name": "acc",
          "type": "address"
        }
      ],
      "name": "getPartnerByAddress",
      "outputs": [
        {
          "components": [
            {
              "internalType": "string",
              "name": "name",
              "type": "string"
            },
            {
              "internalType": "string",
              "name": "description",
              "type": "string"
            },
            {
              "internalType": "string",
              "name": "logo",
              "type": "string"
            },
            {
              "internalType": "address",
              "name": "account",
              "type": "address"
            },
            {
              "internalType": "uint256",
              "name": "number",
              "type": "uint256"
            }
          ],
          "internalType": "struct Core.Partner",
          "name": "",
          "type": "tuple"
        }
      ],
      "payable": false,
      "stateMutability": "view",
      "type": "function"
    },
    {
      "constant": true,
      "inputs": [
        {
          "internalType": "uint256",
          "name": "num",
          "type": "uint256"
        }
      ],
      "name": "getPartnerByNumber",
      "outputs": [
        {
          "components": [
            {
              "internalType": "string",
              "name": "name",
              "type": "string"
            },
            {
              "internalType": "string",
              "name": "description",
              "type": "string"
            },
            {
              "internalType": "string",
              "name": "logo",
              "type": "string"
            },
            {
              "internalType": "address",
              "name": "account",
              "type": "address"
            },
            {
              "internalType": "uint256",
              "name": "number",
              "type": "uint256"
            }
          ],
          "internalType": "struct Core.Partner",
          "name": "",
          "type": "tuple"
        }
      ],
      "payable": false,
      "stateMutability": "view",
      "type": "function"
    },
    {
      "constant": false,
      "inputs": [
        {
          "internalType": "string",
          "name": "caption",
          "type": "string"
        },
        {
          "internalType": "string",
          "name": "description",
          "type": "string"
        },
        {
          "internalType": "string",
          "name": "image",
          "type": "string"
        },
        {
          "internalType": "uint256",
          "name": "value",
          "type": "uint256"
        },
        {
          "internalType": "uint256",
          "name": "totalAmount",
          "type": "uint256"
        }
      ],
      "name": "addReward",
      "outputs": [],
      "payable": false,
      "stateMutability": "nonpayable",
      "type": "function"
    },
    {
      "constant": false,
      "inputs": [
        {
          "internalType": "uint256",
          "name": "id",
          "type": "uint256"
        }
      ],
      "name": "completeReward",
      "outputs": [],
      "payable": false,
      "stateMutability": "nonpayable",
      "type": "function"
    },
    {
      "constant": false,
      "inputs": [
        {
          "internalType": "uint256",
          "name": "id",
          "type": "uint256"
        }
      ],
      "name": "acceptReward",
      "outputs": [],
      "payable": false,
      "stateMutability": "nonpayable",
      "type": "function"
    },
    {
      "constant": true,
      "inputs": [
        {
          "internalType": "uint256",
          "name": "id",
          "type": "uint256"
        }
      ],
      "name": "getReward",
      "outputs": [
        {
          "components": [
            {
              "internalType": "string",
              "name": "caption",
              "type": "string"
            },
            {
              "internalType": "string",
              "name": "description",
              "type": "string"
            },
            {
              "internalType": "string",
              "name": "image",
              "type": "string"
            },
            {
              "internalType": "uint256",
              "name": "value",
              "type": "uint256"
            },
            {
              "internalType": "address",
              "name": "owner",
              "type": "address"
            },
            {
              "internalType": "uint8",
              "name": "status",
              "type": "uint8"
            },
            {
              "internalType": "uint256",
              "name": "totalAmount",
              "type": "uint256"
            },
            {
              "internalType": "uint256",
              "name": "resultsAmount",
              "type": "uint256"
            },
            {
              "internalType": "uint256",
              "name": "number",
              "type": "uint256"
            }
          ],
          "internalType": "struct Core.Reward",
          "name": "reward",
          "type": "tuple"
        }
      ],
      "payable": false,
      "stateMutability": "view",
      "type": "function"
    },
    {
      "constant": true,
      "inputs": [
        {
          "internalType": "uint256",
          "name": "id",
          "type": "uint256"
        },
        {
          "internalType": "uint256",
          "name": "num",
          "type": "uint256"
        }
      ],
      "name": "getRewardResultByNumber",
      "outputs": [
        {
          "components": [
            {
              "internalType": "address",
              "name": "account",
              "type": "address"
            },
            {
              "internalType": "bytes",
              "name": "status",
              "type": "bytes"
            },
            {
              "internalType": "uint256",
              "name": "number",
              "type": "uint256"
            },
            {
              "internalType": "uint256",
              "name": "rewardId",
              "type": "uint256"
            }
          ],
          "internalType": "struct Core.RewardResult",
          "name": "",
          "type": "tuple"
        }
      ],
      "payable": false,
      "stateMutability": "view",
      "type": "function"
    },
    {
      "constant": true,
      "inputs": [
        {
          "internalType": "uint256",
          "name": "id",
          "type": "uint256"
        },
        {
          "internalType": "address",
          "name": "acc",
          "type": "address"
        }
      ],
      "name": "getRewardResultByAddress",
      "outputs": [
        {
          "components": [
            {
              "internalType": "address",
              "name": "account",
              "type": "address"
            },
            {
              "internalType": "bytes",
              "name": "status",
              "type": "bytes"
            },
            {
              "internalType": "uint256",
              "name": "number",
              "type": "uint256"
            },
            {
              "internalType": "uint256",
              "name": "rewardId",
              "type": "uint256"
            }
          ],
          "internalType": "struct Core.RewardResult",
          "name": "",
          "type": "tuple"
        }
      ],
      "payable": false,
      "stateMutability": "view",
      "type": "function"
    },
    {
      "constant": true,
      "inputs": [],
      "name": "getRewardsCount",
      "outputs": [
        {
          "internalType": "uint256",
          "name": "",
          "type": "uint256"
        }
      ],
      "payable": false,
      "stateMutability": "view",
      "type": "function"
    },
    {
      "constant": false,
      "inputs": [
        {
          "internalType": "string",
          "name": "caption",
          "type": "string"
        },
        {
          "internalType": "string",
          "name": "description",
          "type": "string"
        },
        {
          "internalType": "string",
          "name": "image",
          "type": "string"
        },
        {
          "internalType": "uint8",
          "name": "itemType",
          "type": "uint8"
        },
        {
          "internalType": "bytes",
          "name": "data",
          "type": "bytes"
        },
        {
          "internalType": "uint256",
          "name": "value",
          "type": "uint256"
        },
        {
          "internalType": "uint256",
          "name": "totalAmount",
          "type": "uint256"
        }
      ],
      "name": "addTask",
      "outputs": [],
      "payable": false,
      "stateMutability": "nonpayable",
      "type": "function"
    },
    {
      "constant": false,
      "inputs": [
        {
          "internalType": "uint256",
          "name": "id",
          "type": "uint256"
        },
        {
          "internalType": "bytes",
          "name": "result",
          "type": "bytes"
        }
      ],
      "name": "completeTask",
      "outputs": [],
      "payable": false,
      "stateMutability": "nonpayable",
      "type": "function"
    },
    {
      "constant": false,
      "inputs": [
        {
          "internalType": "uint256",
          "name": "id",
          "type": "uint256"
        }
      ],
      "name": "acceptTask",
      "outputs": [],
      "payable": false,
      "stateMutability": "nonpayable",
      "type": "function"
    },
    {
      "constant": true,
      "inputs": [
        {
          "internalType": "uint256",
          "name": "id",
          "type": "uint256"
        }
      ],
      "name": "getTask",
      "outputs": [
        {
          "components": [
            {
              "internalType": "string",
              "name": "caption",
              "type": "string"
            },
            {
              "internalType": "string",
              "name": "description",
              "type": "string"
            },
            {
              "internalType": "string",
              "name": "image",
              "type": "string"
            },
            {
              "internalType": "uint256",
              "name": "value",
              "type": "uint256"
            },
            {
              "internalType": "address",
              "name": "owner",
              "type": "address"
            },
            {
              "internalType": "uint8",
              "name": "status",
              "type": "uint8"
            },
            {
              "internalType": "uint8",
              "name": "itemType",
              "type": "uint8"
            },
            {
              "internalType": "bytes",
              "name": "data",
              "type": "bytes"
            },
            {
              "internalType": "uint256",
              "name": "totalAmount",
              "type": "uint256"
            },
            {
              "internalType": "uint256",
              "name": "resultsAmount",
              "type": "uint256"
            },
            {
              "internalType": "uint256",
              "name": "number",
              "type": "uint256"
            }
          ],
          "internalType": "struct Core.Task",
          "name": "reward",
          "type": "tuple"
        }
      ],
      "payable": false,
      "stateMutability": "view",
      "type": "function"
    },
    {
      "constant": true,
      "inputs": [
        {
          "internalType": "uint256",
          "name": "id",
          "type": "uint256"
        },
        {
          "internalType": "uint256",
          "name": "num",
          "type": "uint256"
        }
      ],
      "name": "getTaskResultByNumber",
      "outputs": [
        {
          "components": [
            {
              "internalType": "address",
              "name": "account",
              "type": "address"
            },
            {
              "internalType": "bytes",
              "name": "data",
              "type": "bytes"
            },
            {
              "internalType": "uint256",
              "name": "number",
              "type": "uint256"
            },
            {
              "internalType": "uint256",
              "name": "taskId",
              "type": "uint256"
            }
          ],
          "internalType": "struct Core.TaskResult",
          "name": "",
          "type": "tuple"
        }
      ],
      "payable": false,
      "stateMutability": "view",
      "type": "function"
    },
    {
      "constant": true,
      "inputs": [
        {
          "internalType": "uint256",
          "name": "id",
          "type": "uint256"
        },
        {
          "internalType": "address",
          "name": "acc",
          "type": "address"
        }
      ],
      "name": "getTaskResultByAddress",
      "outputs": [
        {
          "components": [
            {
              "internalType": "address",
              "name": "account",
              "type": "address"
            },
            {
              "internalType": "bytes",
              "name": "data",
              "type": "bytes"
            },
            {
              "internalType": "uint256",
              "name": "number",
              "type": "uint256"
            },
            {
              "internalType": "uint256",
              "name": "taskId",
              "type": "uint256"
            }
          ],
          "internalType": "struct Core.TaskResult",
          "name": "",
          "type": "tuple"
        }
      ],
      "payable": false,
      "stateMutability": "view",
      "type": "function"
    },
    {
      "constant": true,
      "inputs": [],
      "name": "getTasksCount",
      "outputs": [
        {
          "internalType": "uint256",
          "name": "",
          "type": "uint256"
        }
      ],
      "payable": false,
      "stateMutability": "view",
      "type": "function"
    }
  ],
  "bytecode": "0x60806040523480156200001157600080fd5b50600073__Core__________________________________6371504f1290916040518263ffffffff1660e01b81526004016200004e91906200008d565b60006040518083038186803b1580156200006757600080fd5b505af41580156200007c573d6000803e3d6000fd5b50505050620000aa565b8082525050565b6000602082019050620000a4600083018462000086565b92915050565b613a0480620000ba6000396000f3fe6080604052600436106102045760003560e01c80635a2d432911610118578063a4a1e263116100a0578063d50b30651161006f578063d50b3065146107a5578063d579f16e146107ce578063e80415221461080b578063ed9d4c1114610836578063feebbd931461085f57610204565b8063a4a1e263146106fd578063b4f0819f14610728578063b5fac5ac14610751578063c78c916c1461077c57610204565b806372deef07116100e757806372deef07146106275780637a2ccd3514610643578063925c0fca1461066c57806397c10426146106955780639f899273146106d257610204565b80635a2d43291461055b578063645169061461058457806369c212f6146105c157806370480275146105fe57610204565b80631ee361031161019b57806336440f451161016a57806336440f451461045d5780633aecd0e31461049a5780633f408679146104d75780634019398714610514578063545260971461051e57610204565b80631ee361031461037d5780631fa6774a146103a6578063268e1b83146103e35780632c5c98b51461042057610204565b80631bf6912d116101d75780631bf6912d146102b15780631c272ad9146102da5780631c4b774b146103035780631d65e77e1461034057610204565b80630b4c09841461020957806310fe9ae814610234578063144fa6d71461025f5780631785f53c14610288575b600080fd5b34801561021557600080fd5b5061021e610888565b60405161022b91906137ac565b60405180910390f35b34801561024057600080fd5b50610249610917565b6040516102569190613439565b60405180910390f35b34801561026b57600080fd5b5061028660048036036102819190810190612725565b6109a7565b005b34801561029457600080fd5b506102af60048036036102aa9190810190612725565b610a16565b005b3480156102bd57600080fd5b506102d860048036036102d39190810190612c08565b610a85565b005b3480156102e657600080fd5b5061030160048036036102fc9190810190612777565b610af4565b005b34801561030f57600080fd5b5061032a60048036036103259190810190612c08565b610b6c565b60405161033791906134b3565b60405180910390f35b34801561034c57600080fd5b5061036760048036036103629190810190612c08565b610c0a565b604051610374919061376f565b60405180910390f35b34801561038957600080fd5b506103a4600480360361039f9190810190612725565b610ca8565b005b3480156103b257600080fd5b506103cd60048036036103c89190810190612c5a565b610d17565b6040516103da9190613491565b60405180910390f35b3480156103ef57600080fd5b5061040a60048036036104059190810190612cee565b610db8565b604051610417919061374d565b60405180910390f35b34801561042c57600080fd5b5061044760048036036104429190810190612c5a565b610e59565b604051610454919061374d565b60405180910390f35b34801561046957600080fd5b50610484600480360361047f9190810190612725565b610efa565b6040516104919190613454565b60405180910390f35b3480156104a657600080fd5b506104c160048036036104bc9190810190612725565b610f93565b6040516104ce91906137ac565b60405180910390f35b3480156104e357600080fd5b506104fe60048036036104f99190810190612cee565b611027565b60405161050b9190613491565b60405180910390f35b61051c6110c8565b005b34801561052a57600080fd5b5061054560048036036105409190810190612c08565b6110ca565b6040516105529190613454565b60405180910390f35b34801561056757600080fd5b50610582600480360361057d91908101906127a0565b611163565b005b34801561059057600080fd5b506105ab60048036036105a69190810190612725565b6112da565b6040516105b8919061346f565b60405180910390f35b3480156105cd57600080fd5b506105e860048036036105e39190810190612725565b611378565b6040516105f59190613791565b60405180910390f35b34801561060a57600080fd5b5061062560048036036106209190810190612725565b611411565b005b610641600480360361063c9190810190612777565b611480565b005b34801561064f57600080fd5b5061066a60048036036106659190810190612c96565b611545565b005b34801561067857600080fd5b50610693600480360361068e9190810190612961565b6115ba565b005b3480156106a157600080fd5b506106bc60048036036106b79190810190612c08565b611778565b6040516106c9919061346f565b60405180910390f35b3480156106de57600080fd5b506106e7611816565b6040516106f491906137ac565b60405180910390f35b34801561070957600080fd5b506107126118a5565b60405161071f91906137ac565b60405180910390f35b34801561073457600080fd5b5061074f600480360361074a9190810190612c08565b611934565b005b34801561075d57600080fd5b506107666119a3565b60405161077391906137ac565b60405180910390f35b34801561078857600080fd5b506107a3600480360361079e9190810190612c08565b611a32565b005b3480156107b157600080fd5b506107cc60048036036107c79190810190612859565b611aa1565b005b3480156107da57600080fd5b506107f560048036036107f09190810190612c08565b611b13565b6040516108029190613791565b60405180910390f35b34801561081757600080fd5b50610820611bac565b60405161082d91906137ac565b60405180910390f35b34801561084257600080fd5b5061085d60048036036108589190810190612895565b611c3b565b005b34801561086b57600080fd5b5061088660048036036108819190810190612777565b611da3565b005b600073__Getters_______________________________63c25300fb60006040518263ffffffff1660e01b81526004016108c291906134d5565b60206040518083038186803b1580156108da57600080fd5b505af41580156108ee573d6000803e3d6000fd5b505050506040513d601f19601f820116820180604052506109129190810190612c31565b905090565b60008073__Core__________________________________63aa6093f490916040518263ffffffff1660e01b815260040161095291906134f0565b60206040518083038186803b15801561096a57600080fd5b505af415801561097e573d6000803e3d6000fd5b505050506040513d601f19601f820116820180604052506109a2919081019061274e565b905090565b600073__Core__________________________________63c74706939091836040518363ffffffff1660e01b81526004016109e392919061350b565b60006040518083038186803b1580156109fb57600080fd5b505af4158015610a0f573d6000803e3d6000fd5b5050505050565b600073__Core__________________________________630966ac6a9091836040518363ffffffff1660e01b8152600401610a5292919061350b565b60006040518083038186803b158015610a6a57600080fd5b505af4158015610a7e573d6000803e3d6000fd5b5050505050565b600073__Core__________________________________63a99825ae9091836040518363ffffffff1660e01b8152600401610ac1929190613624565b60006040518083038186803b158015610ad957600080fd5b505af4158015610aed573d6000803e3d6000fd5b5050505050565b610afd81611480565b600073__Core__________________________________6321358c6a9091836040518363ffffffff1660e01b8152600401610b39929190613534565b60006040518083038186803b158015610b5157600080fd5b505af4158015610b65573d6000803e3d6000fd5b5050505050565b610b74611e12565b73__Getters_______________________________63ba5fb4456000846040518363ffffffff1660e01b8152600401610bae9291906136b6565b60006040518083038186803b158015610bc657600080fd5b505af4158015610bda573d6000803e3d6000fd5b505050506040513d6000823e3d601f19601f82011682018060405250610c039190810190612b1c565b9050919050565b610c12611e77565b73__Getters_______________________________63eec245a56000846040518363ffffffff1660e01b8152600401610c4c9291906136b6565b60006040518083038186803b158015610c6457600080fd5b505af4158015610c78573d6000803e3d6000fd5b505050506040513d6000823e3d601f19601f82011682018060405250610ca19190810190612b9e565b9050919050565b600073__Core__________________________________632b6ea0b29091836040518363ffffffff1660e01b8152600401610ce492919061350b565b60006040518083038186803b158015610cfc57600080fd5b505af4158015610d10573d6000803e3d6000fd5b5050505050565b610d1f611eed565b73__Getters_______________________________63024ceab2600085856040518463ffffffff1660e01b8152600401610d5b939291906136df565b60006040518083038186803b158015610d7357600080fd5b505af4158015610d87573d6000803e3d6000fd5b505050506040513d6000823e3d601f19601f82011682018060405250610db09190810190612adb565b905092915050565b610dc0611f2b565b73__Getters_______________________________633f1143c1600085856040518463ffffffff1660e01b8152600401610dfc93929190613716565b60006040518083038186803b158015610e1457600080fd5b505af4158015610e28573d6000803e3d6000fd5b505050506040513d6000823e3d601f19601f82011682018060405250610e519190810190612b5d565b905092915050565b610e61611f2b565b73__Getters_______________________________63ecb4d339600085856040518463ffffffff1660e01b8152600401610e9d939291906136df565b60006040518083038186803b158015610eb557600080fd5b505af4158015610ec9573d6000803e3d6000fd5b505050506040513d6000823e3d601f19601f82011682018060405250610ef29190810190612b5d565b905092915050565b610f02611f69565b73__Getters_______________________________630549dd1e6000846040518363ffffffff1660e01b8152600401610f3c92919061368d565b60606040518083038186803b158015610f5457600080fd5b505af4158015610f68573d6000803e3d6000fd5b505050506040513d601f19601f82011682018060405250610f8c9190810190612a71565b9050919050565b60008073__Core__________________________________63d1b978b49091846040518363ffffffff1660e01b8152600401610fd092919061350b565b60206040518083038186803b158015610fe857600080fd5b505af4158015610ffc573d6000803e3d6000fd5b505050506040513d601f19601f820116820180604052506110209190810190612c31565b9050919050565b61102f611eed565b73__Getters_______________________________63bfe0ee39600085856040518463ffffffff1660e01b815260040161106b93929190613716565b60006040518083038186803b15801561108357600080fd5b505af4158015611097573d6000803e3d6000fd5b505050506040513d6000823e3d601f19601f820116820180604052506110c09190810190612adb565b905092915050565b565b6110d2611f69565b73__Getters_______________________________63898faf6d6000846040518363ffffffff1660e01b815260040161110c9291906136b6565b60606040518083038186803b15801561112457600080fd5b505af4158015611138573d6000803e3d6000fd5b505050506040513d601f19601f8201168201806040525061115c9190810190612a71565b9050919050565b600073__Core__________________________________63d4e0dc6e909160405180608001604052808a8a8080601f016020809104026020016040519081016040528093929190818152602001838380828437600081840152601f19601f82011690508083019250505050505050815260200188888080601f016020809104026020016040519081016040528093929190818152602001838380828437600081840152601f19601f82011690508083019250505050505050815260200186868080601f016020809104026020016040519081016040528093929190818152602001838380828437600081840152601f19601f8201169050808301925050505050505081526020018b73ffffffffffffffffffffffffffffffffffffffff168152506040518363ffffffff1660e01b81526004016112a1929190613594565b60006040518083038186803b1580156112b957600080fd5b505af41580156112cd573d6000803e3d6000fd5b5050505050505050505050565b6112e2611fa3565b73__Getters_______________________________63678c6c536000846040518363ffffffff1660e01b815260040161131c92919061368d565b60006040518083038186803b15801561133457600080fd5b505af4158015611348573d6000803e3d6000fd5b505050506040513d6000823e3d601f19601f820116820180604052506113719190810190612a9a565b9050919050565b611380611fe8565b73__Getters_______________________________63aeb11dc36000846040518363ffffffff1660e01b81526004016113ba92919061368d565b60606040518083038186803b1580156113d257600080fd5b505af41580156113e6573d6000803e3d6000fd5b505050506040513d601f19601f8201168201806040525061140a9190810190612bdf565b9050919050565b600073__Core__________________________________63086921c59091836040518363ffffffff1660e01b815260040161144d92919061350b565b60006040518083038186803b15801561146557600080fd5b505af4158015611479573d6000803e3d6000fd5b5050505050565b8073ffffffffffffffffffffffffffffffffffffffff166108fc73__Core__________________________________630c7521096040518163ffffffff1660e01b815260040160206040518083038186803b1580156114de57600080fd5b505af41580156114f2573d6000803e3d6000fd5b505050506040513d601f19601f820116820180604052506115169190810190612c31565b9081150290604051600060405180830381858888f19350505050158015611541573d6000803e3d6000fd5b5050565b600073__Core__________________________________63123fc71790918585856040518563ffffffff1660e01b8152600401611585949392919061364d565b60006040518083038186803b15801561159d57600080fd5b505af41580156115b1573d6000803e3d6000fd5b50505050505050565b600073__Core__________________________________638af7a4fe90916040518060e001604052808f8f8080601f016020809104026020016040519081016040528093929190818152602001838380828437600081840152601f19601f8201169050808301925050505050505081526020018d8d8080601f016020809104026020016040519081016040528093929190818152602001838380828437600081840152601f19601f8201169050808301925050505050505081526020018b8b8080601f016020809104026020016040519081016040528093929190818152602001838380828437600081840152601f19601f8201169050808301925050505050505081526020018960ff16815260200188888080601f016020809104026020016040519081016040528093929190818152602001838380828437600081840152601f19601f820116905080830192505050505050508152602001868152602001858152506040518363ffffffff1660e01b815260040161173b9291906135f4565b60006040518083038186803b15801561175357600080fd5b505af4158015611767573d6000803e3d6000fd5b505050505050505050505050505050565b611780611fa3565b73__Getters_______________________________63cf78edf16000846040518363ffffffff1660e01b81526004016117ba9291906136b6565b60006040518083038186803b1580156117d257600080fd5b505af41580156117e6573d6000803e3d6000fd5b505050506040513d6000823e3d601f19601f8201168201806040525061180f9190810190612a9a565b9050919050565b600073__Getters_______________________________638d73c2d460006040518263ffffffff1660e01b815260040161185091906134d5565b60206040518083038186803b15801561186857600080fd5b505af415801561187c573d6000803e3d6000fd5b505050506040513d601f19601f820116820180604052506118a09190810190612c31565b905090565b600073__Getters_______________________________6324153ce260006040518263ffffffff1660e01b81526004016118df91906134d5565b60206040518083038186803b1580156118f757600080fd5b505af415801561190b573d6000803e3d6000fd5b505050506040513d601f19601f8201168201806040525061192f9190810190612c31565b905090565b600073__Core__________________________________63f3810f199091836040518363ffffffff1660e01b8152600401611970929190613624565b60006040518083038186803b15801561198857600080fd5b505af415801561199c573d6000803e3d6000fd5b5050505050565b600073__Getters_______________________________63dbf3d8ff60006040518263ffffffff1660e01b81526004016119dd91906134d5565b60206040518083038186803b1580156119f557600080fd5b505af4158015611a09573d6000803e3d6000fd5b505050506040513d601f19601f82011682018060405250611a2d9190810190612c31565b905090565b600073__Core__________________________________639a07b3249091836040518363ffffffff1660e01b8152600401611a6e929190613624565b60006040518083038186803b158015611a8657600080fd5b505af4158015611a9a573d6000803e3d6000fd5b5050505050565b600073__Core__________________________________6393149330909184846040518463ffffffff1660e01b8152600401611adf9392919061355d565b60006040518083038186803b158015611af757600080fd5b505af4158015611b0b573d6000803e3d6000fd5b505050505050565b611b1b611fe8565b73__Getters_______________________________63a43ab65d6000846040518363ffffffff1660e01b8152600401611b559291906136b6565b60606040518083038186803b158015611b6d57600080fd5b505af4158015611b81573d6000803e3d6000fd5b505050506040513d601f19601f82011682018060405250611ba59190810190612bdf565b9050919050565b600073__Getters_______________________________63a827beab60006040518263ffffffff1660e01b8152600401611be691906134d5565b60206040518083038186803b158015611bfe57600080fd5b505af4158015611c12573d6000803e3d6000fd5b505050506040513d601f19601f82011682018060405250611c369190810190612c31565b905090565b600073__Core__________________________________63deaea9e290916040518060a001604052808c8c8080601f016020809104026020016040519081016040528093929190818152602001838380828437600081840152601f19601f8201169050808301925050505050505081526020018a8a8080601f016020809104026020016040519081016040528093929190818152602001838380828437600081840152601f19601f82011690508083019250505050505050815260200188888080601f016020809104026020016040519081016040528093929190818152602001838380828437600081840152601f19601f820116905080830192505050505050508152602001868152602001858152506040518363ffffffff1660e01b8152600401611d699291906135c4565b60006040518083038186803b158015611d8157600080fd5b505af4158015611d95573d6000803e3d6000fd5b505050505050505050505050565b600073__Core__________________________________639277864e9091836040518363ffffffff1660e01b8152600401611ddf929190613534565b60006040518083038186803b158015611df757600080fd5b505af4158015611e0b573d6000803e3d6000fd5b5050505050565b60405180610120016040528060608152602001606081526020016060815260200160008152602001600073ffffffffffffffffffffffffffffffffffffffff168152602001600060ff1681526020016000815260200160008152602001600081525090565b60405180610160016040528060608152602001606081526020016060815260200160008152602001600073ffffffffffffffffffffffffffffffffffffffff168152602001600060ff168152602001600060ff168152602001606081526020016000815260200160008152602001600081525090565b6040518060800160405280600073ffffffffffffffffffffffffffffffffffffffff1681526020016060815260200160008152602001600081525090565b6040518060800160405280600073ffffffffffffffffffffffffffffffffffffffff1681526020016060815260200160008152602001600081525090565b6040518060600160405280600073ffffffffffffffffffffffffffffffffffffffff168152602001600060ff168152602001600081525090565b6040518060a00160405280606081526020016060815260200160608152602001600073ffffffffffffffffffffffffffffffffffffffff168152602001600081525090565b6040518060600160405280600073ffffffffffffffffffffffffffffffffffffffff168152602001600060ff168152602001600081525090565b60008135905061203181613965565b92915050565b60008151905061204681613965565b92915050565b60008135905061205b8161397c565b92915050565b60008083601f84011261207357600080fd5b8235905067ffffffffffffffff81111561208c57600080fd5b6020830191508360018202830111156120a457600080fd5b9250929050565b600082601f8301126120bc57600080fd5b81516120cf6120ca826137f4565b6137c7565b915080825260208301602083018583830111156120eb57600080fd5b6120f6838284613921565b50505092915050565b60008083601f84011261211157600080fd5b8235905067ffffffffffffffff81111561212a57600080fd5b60208301915083600182028301111561214257600080fd5b9250929050565b600082601f83011261215a57600080fd5b815161216d61216882613820565b6137c7565b9150808252602083016020830185838301111561218957600080fd5b612194838284613921565b50505092915050565b6000606082840312156121af57600080fd5b6121b960606137c7565b905060006121c984828501612037565b60008301525060206121dd84828501612710565b60208301525060406121f1848285016126e6565b60408301525092915050565b600060a0828403121561220f57600080fd5b61221960a06137c7565b9050600082015167ffffffffffffffff81111561223557600080fd5b61224184828501612149565b600083015250602082015167ffffffffffffffff81111561226157600080fd5b61226d84828501612149565b602083015250604082015167ffffffffffffffff81111561228d57600080fd5b61229984828501612149565b60408301525060606122ad84828501612037565b60608301525060806122c1848285016126e6565b60808301525092915050565b6000608082840312156122df57600080fd5b6122e960806137c7565b905060006122f984828501612037565b600083015250602082015167ffffffffffffffff81111561231957600080fd5b612325848285016120ab565b6020830152506040612339848285016126e6565b604083015250606061234d848285016126e6565b60608301525092915050565b6000610120828403121561236c57600080fd5b6123776101206137c7565b9050600082015167ffffffffffffffff81111561239357600080fd5b61239f84828501612149565b600083015250602082015167ffffffffffffffff8111156123bf57600080fd5b6123cb84828501612149565b602083015250604082015167ffffffffffffffff8111156123eb57600080fd5b6123f784828501612149565b604083015250606061240b848285016126e6565b606083015250608061241f84828501612037565b60808301525060a061243384828501612710565b60a08301525060c0612447848285016126e6565b60c08301525060e061245b848285016126e6565b60e083015250610100612470848285016126e6565b6101008301525092915050565b60006080828403121561248f57600080fd5b61249960806137c7565b905060006124a984828501612037565b600083015250602082015167ffffffffffffffff8111156124c957600080fd5b6124d5848285016120ab565b60208301525060406124e9848285016126e6565b60408301525060606124fd848285016126e6565b60608301525092915050565b6000610160828403121561251c57600080fd5b6125276101606137c7565b9050600082015167ffffffffffffffff81111561254357600080fd5b61254f84828501612149565b600083015250602082015167ffffffffffffffff81111561256f57600080fd5b61257b84828501612149565b602083015250604082015167ffffffffffffffff81111561259b57600080fd5b6125a784828501612149565b60408301525060606125bb848285016126e6565b60608301525060806125cf84828501612037565b60808301525060a06125e384828501612710565b60a08301525060c06125f784828501612710565b60c08301525060e082015167ffffffffffffffff81111561261757600080fd5b612623848285016120ab565b60e083015250610100612638848285016126e6565b6101008301525061012061264e848285016126e6565b61012083015250610140612664848285016126e6565b6101408301525092915050565b60006060828403121561268357600080fd5b61268d60606137c7565b9050600061269d84828501612037565b60008301525060206126b184828501612710565b60208301525060406126c5848285016126e6565b60408301525092915050565b6000813590506126e081613993565b92915050565b6000815190506126f581613993565b92915050565b60008135905061270a816139aa565b92915050565b60008151905061271f816139aa565b92915050565b60006020828403121561273757600080fd5b600061274584828501612022565b91505092915050565b60006020828403121561276057600080fd5b600061276e84828501612037565b91505092915050565b60006020828403121561278957600080fd5b60006127978482850161204c565b91505092915050565b60008060008060008060006080888a0312156127bb57600080fd5b60006127c98a828b01612022565b975050602088013567ffffffffffffffff8111156127e657600080fd5b6127f28a828b016120ff565b9650965050604088013567ffffffffffffffff81111561281157600080fd5b61281d8a828b016120ff565b9450945050606088013567ffffffffffffffff81111561283c57600080fd5b6128488a828b016120ff565b925092505092959891949750929550565b6000806040838503121561286c57600080fd5b600061287a85828601612022565b925050602061288b858286016126d1565b9150509250929050565b60008060008060008060008060a0898b0312156128b157600080fd5b600089013567ffffffffffffffff8111156128cb57600080fd5b6128d78b828c016120ff565b9850985050602089013567ffffffffffffffff8111156128f657600080fd5b6129028b828c016120ff565b9650965050604089013567ffffffffffffffff81111561292157600080fd5b61292d8b828c016120ff565b945094505060606129408b828c016126d1565b92505060806129518b828c016126d1565b9150509295985092959890939650565b600080600080600080600080600080600060e08c8e03121561298257600080fd5b60008c013567ffffffffffffffff81111561299c57600080fd5b6129a88e828f016120ff565b9b509b505060208c013567ffffffffffffffff8111156129c757600080fd5b6129d38e828f016120ff565b995099505060408c013567ffffffffffffffff8111156129f257600080fd5b6129fe8e828f016120ff565b97509750506060612a118e828f016126fb565b95505060808c013567ffffffffffffffff811115612a2e57600080fd5b612a3a8e828f01612061565b945094505060a0612a4d8e828f016126d1565b92505060c0612a5e8e828f016126d1565b9150509295989b509295989b9093969950565b600060608284031215612a8357600080fd5b6000612a918482850161219d565b91505092915050565b600060208284031215612aac57600080fd5b600082015167ffffffffffffffff811115612ac657600080fd5b612ad2848285016121fd565b91505092915050565b600060208284031215612aed57600080fd5b600082015167ffffffffffffffff811115612b0757600080fd5b612b13848285016122cd565b91505092915050565b600060208284031215612b2e57600080fd5b600082015167ffffffffffffffff811115612b4857600080fd5b612b5484828501612359565b91505092915050565b600060208284031215612b6f57600080fd5b600082015167ffffffffffffffff811115612b8957600080fd5b612b958482850161247d565b91505092915050565b600060208284031215612bb057600080fd5b600082015167ffffffffffffffff811115612bca57600080fd5b612bd684828501612509565b91505092915050565b600060608284031215612bf157600080fd5b6000612bff84828501612671565b91505092915050565b600060208284031215612c1a57600080fd5b6000612c28848285016126d1565b91505092915050565b600060208284031215612c4357600080fd5b6000612c51848285016126e6565b91505092915050565b60008060408385031215612c6d57600080fd5b6000612c7b858286016126d1565b9250506020612c8c85828601612022565b9150509250929050565b600080600060408486031215612cab57600080fd5b6000612cb9868287016126d1565b935050602084013567ffffffffffffffff811115612cd657600080fd5b612ce286828701612061565b92509250509250925092565b60008060408385031215612d0157600080fd5b6000612d0f858286016126d1565b9250506020612d20858286016126d1565b9150509250929050565b612d33816138c9565b82525050565b612d42816138b7565b82525050565b612d51816138b7565b82525050565b612d60816138b7565b82525050565b612d6f816138b7565b82525050565b6000612d818385613873565b9350612d8e838584613912565b612d9783613954565b840190509392505050565b6000612dad8261384c565b612db78185613862565b9350612dc7818560208601613921565b612dd081613954565b840191505092915050565b6000612de68261384c565b612df08185613884565b9350612e00818560208601613921565b612e0981613954565b840191505092915050565b6000612e1f82613857565b612e298185613895565b9350612e39818560208601613921565b612e4281613954565b840191505092915050565b6000612e5882613857565b612e6281856138a6565b9350612e72818560208601613921565b612e7b81613954565b840191505092915050565b606082016000820151612e9c6000850182612d39565b506020820151612eaf602085018261341b565b506040820151612ec260408501826133df565b50505050565b60006080830160008301518482036000860152612ee58282612e4d565b91505060208301518482036020860152612eff8282612e4d565b91505060408301518482036040860152612f198282612e4d565b9150506060830151612f2e6060860182612d66565b508091505092915050565b600060a0830160008301518482036000860152612f568282612e4d565b91505060208301518482036020860152612f708282612e4d565b91505060408301518482036040860152612f8a8282612e4d565b9150506060830151612f9f606086018261340c565b506080830151612fb2608086018261340c565b508091505092915050565b600060e0830160008301518482036000860152612fda8282612e4d565b91505060208301518482036020860152612ff48282612e4d565b9150506040830151848203604086015261300e8282612e4d565b9150506060830151613023606086018261342a565b506080830151848203608086015261303b8282612ddb565b91505060a083015161305060a086018261340c565b5060c083015161306360c086018261340c565b508091505092915050565b600060a083016000830151848203600086015261308b8282612e14565b915050602083015184820360208601526130a58282612e14565b915050604083015184820360408601526130bf8282612e14565b91505060608301516130d46060860182612d39565b5060808301516130e760808601826133df565b508091505092915050565b600060808301600083015161310a6000860182612d39565b50602083015184820360208601526131228282612da2565b915050604083015161313760408601826133df565b50606083015161314a60608601826133df565b508091505092915050565b60006101208301600083015184820360008601526131738282612e14565b9150506020830151848203602086015261318d8282612e14565b915050604083015184820360408601526131a78282612e14565b91505060608301516131bc60608601826133df565b5060808301516131cf6080860182612d39565b5060a08301516131e260a086018261341b565b5060c08301516131f560c08601826133df565b5060e083015161320860e08601826133df565b5061010083015161321d6101008601826133df565b508091505092915050565b8082525050565b8082525050565b600060808301600083015161324e6000860182612d39565b50602083015184820360208601526132668282612da2565b915050604083015161327b60408601826133df565b50606083015161328e60608601826133df565b508091505092915050565b60006101608301600083015184820360008601526132b78282612e14565b915050602083015184820360208601526132d18282612e14565b915050604083015184820360408601526132eb8282612e14565b915050606083015161330060608601826133df565b5060808301516133136080860182612d39565b5060a083015161332660a086018261341b565b5060c083015161333960c086018261341b565b5060e083015184820360e08601526133518282612da2565b9150506101008301516133686101008601826133df565b5061012083015161337d6101208601826133df565b506101408301516133926101408601826133df565b508091505092915050565b6060820160008201516133b36000850182612d39565b5060208201516133c6602085018261341b565b5060408201516133d960408501826133df565b50505050565b6133e8816138fb565b82525050565b6133f7816138fb565b82525050565b613406816138fb565b82525050565b613415816138fb565b82525050565b61342481613905565b82525050565b61343381613905565b82525050565b600060208201905061344e6000830184612d48565b92915050565b60006060820190506134696000830184612e86565b92915050565b60006020820190508181036000830152613489818461306e565b905092915050565b600060208201905081810360008301526134ab81846130f2565b905092915050565b600060208201905081810360008301526134cd8184613155565b905092915050565b60006020820190506134ea600083018461322f565b92915050565b60006020820190506135056000830184613228565b92915050565b60006040820190506135206000830185613228565b61352d6020830184612d57565b9392505050565b60006040820190506135496000830185613228565b6135566020830184612d2a565b9392505050565b60006060820190506135726000830186613228565b61357f6020830185612d57565b61358c60408301846133fd565b949350505050565b60006040820190506135a96000830185613228565b81810360208301526135bb8184612ec8565b90509392505050565b60006040820190506135d96000830185613228565b81810360208301526135eb8184612f39565b90509392505050565b60006040820190506136096000830185613228565b818103602083015261361b8184612fbd565b90509392505050565b60006040820190506136396000830185613228565b61364660208301846133fd565b9392505050565b60006060820190506136626000830187613228565b61366f60208301866133fd565b8181036040830152613682818486612d75565b905095945050505050565b60006040820190506136a2600083018561322f565b6136af6020830184612d57565b9392505050565b60006040820190506136cb600083018561322f565b6136d860208301846133fd565b9392505050565b60006060820190506136f4600083018661322f565b61370160208301856133fd565b61370e6040830184612d57565b949350505050565b600060608201905061372b600083018661322f565b61373860208301856133fd565b61374560408301846133fd565b949350505050565b600060208201905081810360008301526137678184613236565b905092915050565b600060208201905081810360008301526137898184613299565b905092915050565b60006060820190506137a6600083018461339d565b92915050565b60006020820190506137c160008301846133ee565b92915050565b6000604051905081810181811067ffffffffffffffff821117156137ea57600080fd5b8060405250919050565b600067ffffffffffffffff82111561380b57600080fd5b601f19601f8301169050602081019050919050565b600067ffffffffffffffff82111561383757600080fd5b601f19601f8301169050602081019050919050565b600081519050919050565b600081519050919050565b600082825260208201905092915050565b600082825260208201905092915050565b600082825260208201905092915050565b600082825260208201905092915050565b600082825260208201905092915050565b60006138c2826138db565b9050919050565b60006138d4826138db565b9050919050565b600073ffffffffffffffffffffffffffffffffffffffff82169050919050565b6000819050919050565b600060ff82169050919050565b82818337600083830152505050565b60005b8381101561393f578082015181840152602081019050613924565b8381111561394e576000848401525b50505050565b6000601f19601f8301169050919050565b61396e816138b7565b811461397957600080fd5b50565b613985816138c9565b811461399057600080fd5b50565b61399c816138fb565b81146139a757600080fd5b50565b6139b381613905565b81146139be57600080fd5b5056fea365627a7a7231582011e781da334d6c42c1bcd8f49067870d5c67c7bfb4698f093cb915c9a4bf686c6c6578706572696d656e74616cf564736f6c634300050c0040",
  "deployedBytecode": "0x6080604052600436106102045760003560e01c80635a2d432911610118578063a4a1e263116100a0578063d50b30651161006f578063d50b3065146107a5578063d579f16e146107ce578063e80415221461080b578063ed9d4c1114610836578063feebbd931461085f57610204565b8063a4a1e263146106fd578063b4f0819f14610728578063b5fac5ac14610751578063c78c916c1461077c57610204565b806372deef07116100e757806372deef07146106275780637a2ccd3514610643578063925c0fca1461066c57806397c10426146106955780639f899273146106d257610204565b80635a2d43291461055b578063645169061461058457806369c212f6146105c157806370480275146105fe57610204565b80631ee361031161019b57806336440f451161016a57806336440f451461045d5780633aecd0e31461049a5780633f408679146104d75780634019398714610514578063545260971461051e57610204565b80631ee361031461037d5780631fa6774a146103a6578063268e1b83146103e35780632c5c98b51461042057610204565b80631bf6912d116101d75780631bf6912d146102b15780631c272ad9146102da5780631c4b774b146103035780631d65e77e1461034057610204565b80630b4c09841461020957806310fe9ae814610234578063144fa6d71461025f5780631785f53c14610288575b600080fd5b34801561021557600080fd5b5061021e610888565b60405161022b91906137ac565b60405180910390f35b34801561024057600080fd5b50610249610917565b6040516102569190613439565b60405180910390f35b34801561026b57600080fd5b5061028660048036036102819190810190612725565b6109a7565b005b34801561029457600080fd5b506102af60048036036102aa9190810190612725565b610a16565b005b3480156102bd57600080fd5b506102d860048036036102d39190810190612c08565b610a85565b005b3480156102e657600080fd5b5061030160048036036102fc9190810190612777565b610af4565b005b34801561030f57600080fd5b5061032a60048036036103259190810190612c08565b610b6c565b60405161033791906134b3565b60405180910390f35b34801561034c57600080fd5b5061036760048036036103629190810190612c08565b610c0a565b604051610374919061376f565b60405180910390f35b34801561038957600080fd5b506103a4600480360361039f9190810190612725565b610ca8565b005b3480156103b257600080fd5b506103cd60048036036103c89190810190612c5a565b610d17565b6040516103da9190613491565b60405180910390f35b3480156103ef57600080fd5b5061040a60048036036104059190810190612cee565b610db8565b604051610417919061374d565b60405180910390f35b34801561042c57600080fd5b5061044760048036036104429190810190612c5a565b610e59565b604051610454919061374d565b60405180910390f35b34801561046957600080fd5b50610484600480360361047f9190810190612725565b610efa565b6040516104919190613454565b60405180910390f35b3480156104a657600080fd5b506104c160048036036104bc9190810190612725565b610f93565b6040516104ce91906137ac565b60405180910390f35b3480156104e357600080fd5b506104fe60048036036104f99190810190612cee565b611027565b60405161050b9190613491565b60405180910390f35b61051c6110c8565b005b34801561052a57600080fd5b5061054560048036036105409190810190612c08565b6110ca565b6040516105529190613454565b60405180910390f35b34801561056757600080fd5b50610582600480360361057d91908101906127a0565b611163565b005b34801561059057600080fd5b506105ab60048036036105a69190810190612725565b6112da565b6040516105b8919061346f565b60405180910390f35b3480156105cd57600080fd5b506105e860048036036105e39190810190612725565b611378565b6040516105f59190613791565b60405180910390f35b34801561060a57600080fd5b5061062560048036036106209190810190612725565b611411565b005b610641600480360361063c9190810190612777565b611480565b005b34801561064f57600080fd5b5061066a60048036036106659190810190612c96565b611545565b005b34801561067857600080fd5b50610693600480360361068e9190810190612961565b6115ba565b005b3480156106a157600080fd5b506106bc60048036036106b79190810190612c08565b611778565b6040516106c9919061346f565b60405180910390f35b3480156106de57600080fd5b506106e7611816565b6040516106f491906137ac565b60405180910390f35b34801561070957600080fd5b506107126118a5565b60405161071f91906137ac565b60405180910390f35b34801561073457600080fd5b5061074f600480360361074a9190810190612c08565b611934565b005b34801561075d57600080fd5b506107666119a3565b60405161077391906137ac565b60405180910390f35b34801561078857600080fd5b506107a3600480360361079e9190810190612c08565b611a32565b005b3480156107b157600080fd5b506107cc60048036036107c79190810190612859565b611aa1565b005b3480156107da57600080fd5b506107f560048036036107f09190810190612c08565b611b13565b6040516108029190613791565b60405180910390f35b34801561081757600080fd5b50610820611bac565b60405161082d91906137ac565b60405180910390f35b34801561084257600080fd5b5061085d60048036036108589190810190612895565b611c3b565b005b34801561086b57600080fd5b5061088660048036036108819190810190612777565b611da3565b005b600073__Getters_______________________________63c25300fb60006040518263ffffffff1660e01b81526004016108c291906134d5565b60206040518083038186803b1580156108da57600080fd5b505af41580156108ee573d6000803e3d6000fd5b505050506040513d601f19601f820116820180604052506109129190810190612c31565b905090565b60008073__Core__________________________________63aa6093f490916040518263ffffffff1660e01b815260040161095291906134f0565b60206040518083038186803b15801561096a57600080fd5b505af415801561097e573d6000803e3d6000fd5b505050506040513d601f19601f820116820180604052506109a2919081019061274e565b905090565b600073__Core__________________________________63c74706939091836040518363ffffffff1660e01b81526004016109e392919061350b565b60006040518083038186803b1580156109fb57600080fd5b505af4158015610a0f573d6000803e3d6000fd5b5050505050565b600073__Core__________________________________630966ac6a9091836040518363ffffffff1660e01b8152600401610a5292919061350b565b60006040518083038186803b158015610a6a57600080fd5b505af4158015610a7e573d6000803e3d6000fd5b5050505050565b600073__Core__________________________________63a99825ae9091836040518363ffffffff1660e01b8152600401610ac1929190613624565b60006040518083038186803b158015610ad957600080fd5b505af4158015610aed573d6000803e3d6000fd5b5050505050565b610afd81611480565b600073__Core__________________________________6321358c6a9091836040518363ffffffff1660e01b8152600401610b39929190613534565b60006040518083038186803b158015610b5157600080fd5b505af4158015610b65573d6000803e3d6000fd5b5050505050565b610b74611e12565b73__Getters_______________________________63ba5fb4456000846040518363ffffffff1660e01b8152600401610bae9291906136b6565b60006040518083038186803b158015610bc657600080fd5b505af4158015610bda573d6000803e3d6000fd5b505050506040513d6000823e3d601f19601f82011682018060405250610c039190810190612b1c565b9050919050565b610c12611e77565b73__Getters_______________________________63eec245a56000846040518363ffffffff1660e01b8152600401610c4c9291906136b6565b60006040518083038186803b158015610c6457600080fd5b505af4158015610c78573d6000803e3d6000fd5b505050506040513d6000823e3d601f19601f82011682018060405250610ca19190810190612b9e565b9050919050565b600073__Core__________________________________632b6ea0b29091836040518363ffffffff1660e01b8152600401610ce492919061350b565b60006040518083038186803b158015610cfc57600080fd5b505af4158015610d10573d6000803e3d6000fd5b5050505050565b610d1f611eed565b73__Getters_______________________________63024ceab2600085856040518463ffffffff1660e01b8152600401610d5b939291906136df565b60006040518083038186803b158015610d7357600080fd5b505af4158015610d87573d6000803e3d6000fd5b505050506040513d6000823e3d601f19601f82011682018060405250610db09190810190612adb565b905092915050565b610dc0611f2b565b73__Getters_______________________________633f1143c1600085856040518463ffffffff1660e01b8152600401610dfc93929190613716565b60006040518083038186803b158015610e1457600080fd5b505af4158015610e28573d6000803e3d6000fd5b505050506040513d6000823e3d601f19601f82011682018060405250610e519190810190612b5d565b905092915050565b610e61611f2b565b73__Getters_______________________________63ecb4d339600085856040518463ffffffff1660e01b8152600401610e9d939291906136df565b60006040518083038186803b158015610eb557600080fd5b505af4158015610ec9573d6000803e3d6000fd5b505050506040513d6000823e3d601f19601f82011682018060405250610ef29190810190612b5d565b905092915050565b610f02611f69565b73__Getters_______________________________630549dd1e6000846040518363ffffffff1660e01b8152600401610f3c92919061368d565b60606040518083038186803b158015610f5457600080fd5b505af4158015610f68573d6000803e3d6000fd5b505050506040513d601f19601f82011682018060405250610f8c9190810190612a71565b9050919050565b60008073__Core__________________________________63d1b978b49091846040518363ffffffff1660e01b8152600401610fd092919061350b565b60206040518083038186803b158015610fe857600080fd5b505af4158015610ffc573d6000803e3d6000fd5b505050506040513d601f19601f820116820180604052506110209190810190612c31565b9050919050565b61102f611eed565b73__Getters_______________________________63bfe0ee39600085856040518463ffffffff1660e01b815260040161106b93929190613716565b60006040518083038186803b15801561108357600080fd5b505af4158015611097573d6000803e3d6000fd5b505050506040513d6000823e3d601f19601f820116820180604052506110c09190810190612adb565b905092915050565b565b6110d2611f69565b73__Getters_______________________________63898faf6d6000846040518363ffffffff1660e01b815260040161110c9291906136b6565b60606040518083038186803b15801561112457600080fd5b505af4158015611138573d6000803e3d6000fd5b505050506040513d601f19601f8201168201806040525061115c9190810190612a71565b9050919050565b600073__Core__________________________________63d4e0dc6e909160405180608001604052808a8a8080601f016020809104026020016040519081016040528093929190818152602001838380828437600081840152601f19601f82011690508083019250505050505050815260200188888080601f016020809104026020016040519081016040528093929190818152602001838380828437600081840152601f19601f82011690508083019250505050505050815260200186868080601f016020809104026020016040519081016040528093929190818152602001838380828437600081840152601f19601f8201169050808301925050505050505081526020018b73ffffffffffffffffffffffffffffffffffffffff168152506040518363ffffffff1660e01b81526004016112a1929190613594565b60006040518083038186803b1580156112b957600080fd5b505af41580156112cd573d6000803e3d6000fd5b5050505050505050505050565b6112e2611fa3565b73__Getters_______________________________63678c6c536000846040518363ffffffff1660e01b815260040161131c92919061368d565b60006040518083038186803b15801561133457600080fd5b505af4158015611348573d6000803e3d6000fd5b505050506040513d6000823e3d601f19601f820116820180604052506113719190810190612a9a565b9050919050565b611380611fe8565b73__Getters_______________________________63aeb11dc36000846040518363ffffffff1660e01b81526004016113ba92919061368d565b60606040518083038186803b1580156113d257600080fd5b505af41580156113e6573d6000803e3d6000fd5b505050506040513d601f19601f8201168201806040525061140a9190810190612bdf565b9050919050565b600073__Core__________________________________63086921c59091836040518363ffffffff1660e01b815260040161144d92919061350b565b60006040518083038186803b15801561146557600080fd5b505af4158015611479573d6000803e3d6000fd5b5050505050565b8073ffffffffffffffffffffffffffffffffffffffff166108fc73__Core__________________________________630c7521096040518163ffffffff1660e01b815260040160206040518083038186803b1580156114de57600080fd5b505af41580156114f2573d6000803e3d6000fd5b505050506040513d601f19601f820116820180604052506115169190810190612c31565b9081150290604051600060405180830381858888f19350505050158015611541573d6000803e3d6000fd5b5050565b600073__Core__________________________________63123fc71790918585856040518563ffffffff1660e01b8152600401611585949392919061364d565b60006040518083038186803b15801561159d57600080fd5b505af41580156115b1573d6000803e3d6000fd5b50505050505050565b600073__Core__________________________________638af7a4fe90916040518060e001604052808f8f8080601f016020809104026020016040519081016040528093929190818152602001838380828437600081840152601f19601f8201169050808301925050505050505081526020018d8d8080601f016020809104026020016040519081016040528093929190818152602001838380828437600081840152601f19601f8201169050808301925050505050505081526020018b8b8080601f016020809104026020016040519081016040528093929190818152602001838380828437600081840152601f19601f8201169050808301925050505050505081526020018960ff16815260200188888080601f016020809104026020016040519081016040528093929190818152602001838380828437600081840152601f19601f820116905080830192505050505050508152602001868152602001858152506040518363ffffffff1660e01b815260040161173b9291906135f4565b60006040518083038186803b15801561175357600080fd5b505af4158015611767573d6000803e3d6000fd5b505050505050505050505050505050565b611780611fa3565b73__Getters_______________________________63cf78edf16000846040518363ffffffff1660e01b81526004016117ba9291906136b6565b60006040518083038186803b1580156117d257600080fd5b505af41580156117e6573d6000803e3d6000fd5b505050506040513d6000823e3d601f19601f8201168201806040525061180f9190810190612a9a565b9050919050565b600073__Getters_______________________________638d73c2d460006040518263ffffffff1660e01b815260040161185091906134d5565b60206040518083038186803b15801561186857600080fd5b505af415801561187c573d6000803e3d6000fd5b505050506040513d601f19601f820116820180604052506118a09190810190612c31565b905090565b600073__Getters_______________________________6324153ce260006040518263ffffffff1660e01b81526004016118df91906134d5565b60206040518083038186803b1580156118f757600080fd5b505af415801561190b573d6000803e3d6000fd5b505050506040513d601f19601f8201168201806040525061192f9190810190612c31565b905090565b600073__Core__________________________________63f3810f199091836040518363ffffffff1660e01b8152600401611970929190613624565b60006040518083038186803b15801561198857600080fd5b505af415801561199c573d6000803e3d6000fd5b5050505050565b600073__Getters_______________________________63dbf3d8ff60006040518263ffffffff1660e01b81526004016119dd91906134d5565b60206040518083038186803b1580156119f557600080fd5b505af4158015611a09573d6000803e3d6000fd5b505050506040513d601f19601f82011682018060405250611a2d9190810190612c31565b905090565b600073__Core__________________________________639a07b3249091836040518363ffffffff1660e01b8152600401611a6e929190613624565b60006040518083038186803b158015611a8657600080fd5b505af4158015611a9a573d6000803e3d6000fd5b5050505050565b600073__Core__________________________________6393149330909184846040518463ffffffff1660e01b8152600401611adf9392919061355d565b60006040518083038186803b158015611af757600080fd5b505af4158015611b0b573d6000803e3d6000fd5b505050505050565b611b1b611fe8565b73__Getters_______________________________63a43ab65d6000846040518363ffffffff1660e01b8152600401611b559291906136b6565b60606040518083038186803b158015611b6d57600080fd5b505af4158015611b81573d6000803e3d6000fd5b505050506040513d601f19601f82011682018060405250611ba59190810190612bdf565b9050919050565b600073__Getters_______________________________63a827beab60006040518263ffffffff1660e01b8152600401611be691906134d5565b60206040518083038186803b158015611bfe57600080fd5b505af4158015611c12573d6000803e3d6000fd5b505050506040513d601f19601f82011682018060405250611c369190810190612c31565b905090565b600073__Core__________________________________63deaea9e290916040518060a001604052808c8c8080601f016020809104026020016040519081016040528093929190818152602001838380828437600081840152601f19601f8201169050808301925050505050505081526020018a8a8080601f016020809104026020016040519081016040528093929190818152602001838380828437600081840152601f19601f82011690508083019250505050505050815260200188888080601f016020809104026020016040519081016040528093929190818152602001838380828437600081840152601f19601f820116905080830192505050505050508152602001868152602001858152506040518363ffffffff1660e01b8152600401611d699291906135c4565b60006040518083038186803b158015611d8157600080fd5b505af4158015611d95573d6000803e3d6000fd5b505050505050505050505050565b600073__Core__________________________________639277864e9091836040518363ffffffff1660e01b8152600401611ddf929190613534565b60006040518083038186803b158015611df757600080fd5b505af4158015611e0b573d6000803e3d6000fd5b5050505050565b60405180610120016040528060608152602001606081526020016060815260200160008152602001600073ffffffffffffffffffffffffffffffffffffffff168152602001600060ff1681526020016000815260200160008152602001600081525090565b60405180610160016040528060608152602001606081526020016060815260200160008152602001600073ffffffffffffffffffffffffffffffffffffffff168152602001600060ff168152602001600060ff168152602001606081526020016000815260200160008152602001600081525090565b6040518060800160405280600073ffffffffffffffffffffffffffffffffffffffff1681526020016060815260200160008152602001600081525090565b6040518060800160405280600073ffffffffffffffffffffffffffffffffffffffff1681526020016060815260200160008152602001600081525090565b6040518060600160405280600073ffffffffffffffffffffffffffffffffffffffff168152602001600060ff168152602001600081525090565b6040518060a00160405280606081526020016060815260200160608152602001600073ffffffffffffffffffffffffffffffffffffffff168152602001600081525090565b6040518060600160405280600073ffffffffffffffffffffffffffffffffffffffff168152602001600060ff168152602001600081525090565b60008135905061203181613965565b92915050565b60008151905061204681613965565b92915050565b60008135905061205b8161397c565b92915050565b60008083601f84011261207357600080fd5b8235905067ffffffffffffffff81111561208c57600080fd5b6020830191508360018202830111156120a457600080fd5b9250929050565b600082601f8301126120bc57600080fd5b81516120cf6120ca826137f4565b6137c7565b915080825260208301602083018583830111156120eb57600080fd5b6120f6838284613921565b50505092915050565b60008083601f84011261211157600080fd5b8235905067ffffffffffffffff81111561212a57600080fd5b60208301915083600182028301111561214257600080fd5b9250929050565b600082601f83011261215a57600080fd5b815161216d61216882613820565b6137c7565b9150808252602083016020830185838301111561218957600080fd5b612194838284613921565b50505092915050565b6000606082840312156121af57600080fd5b6121b960606137c7565b905060006121c984828501612037565b60008301525060206121dd84828501612710565b60208301525060406121f1848285016126e6565b60408301525092915050565b600060a0828403121561220f57600080fd5b61221960a06137c7565b9050600082015167ffffffffffffffff81111561223557600080fd5b61224184828501612149565b600083015250602082015167ffffffffffffffff81111561226157600080fd5b61226d84828501612149565b602083015250604082015167ffffffffffffffff81111561228d57600080fd5b61229984828501612149565b60408301525060606122ad84828501612037565b60608301525060806122c1848285016126e6565b60808301525092915050565b6000608082840312156122df57600080fd5b6122e960806137c7565b905060006122f984828501612037565b600083015250602082015167ffffffffffffffff81111561231957600080fd5b612325848285016120ab565b6020830152506040612339848285016126e6565b604083015250606061234d848285016126e6565b60608301525092915050565b6000610120828403121561236c57600080fd5b6123776101206137c7565b9050600082015167ffffffffffffffff81111561239357600080fd5b61239f84828501612149565b600083015250602082015167ffffffffffffffff8111156123bf57600080fd5b6123cb84828501612149565b602083015250604082015167ffffffffffffffff8111156123eb57600080fd5b6123f784828501612149565b604083015250606061240b848285016126e6565b606083015250608061241f84828501612037565b60808301525060a061243384828501612710565b60a08301525060c0612447848285016126e6565b60c08301525060e061245b848285016126e6565b60e083015250610100612470848285016126e6565b6101008301525092915050565b60006080828403121561248f57600080fd5b61249960806137c7565b905060006124a984828501612037565b600083015250602082015167ffffffffffffffff8111156124c957600080fd5b6124d5848285016120ab565b60208301525060406124e9848285016126e6565b60408301525060606124fd848285016126e6565b60608301525092915050565b6000610160828403121561251c57600080fd5b6125276101606137c7565b9050600082015167ffffffffffffffff81111561254357600080fd5b61254f84828501612149565b600083015250602082015167ffffffffffffffff81111561256f57600080fd5b61257b84828501612149565b602083015250604082015167ffffffffffffffff81111561259b57600080fd5b6125a784828501612149565b60408301525060606125bb848285016126e6565b60608301525060806125cf84828501612037565b60808301525060a06125e384828501612710565b60a08301525060c06125f784828501612710565b60c08301525060e082015167ffffffffffffffff81111561261757600080fd5b612623848285016120ab565b60e083015250610100612638848285016126e6565b6101008301525061012061264e848285016126e6565b61012083015250610140612664848285016126e6565b6101408301525092915050565b60006060828403121561268357600080fd5b61268d60606137c7565b9050600061269d84828501612037565b60008301525060206126b184828501612710565b60208301525060406126c5848285016126e6565b60408301525092915050565b6000813590506126e081613993565b92915050565b6000815190506126f581613993565b92915050565b60008135905061270a816139aa565b92915050565b60008151905061271f816139aa565b92915050565b60006020828403121561273757600080fd5b600061274584828501612022565b91505092915050565b60006020828403121561276057600080fd5b600061276e84828501612037565b91505092915050565b60006020828403121561278957600080fd5b60006127978482850161204c565b91505092915050565b60008060008060008060006080888a0312156127bb57600080fd5b60006127c98a828b01612022565b975050602088013567ffffffffffffffff8111156127e657600080fd5b6127f28a828b016120ff565b9650965050604088013567ffffffffffffffff81111561281157600080fd5b61281d8a828b016120ff565b9450945050606088013567ffffffffffffffff81111561283c57600080fd5b6128488a828b016120ff565b925092505092959891949750929550565b6000806040838503121561286c57600080fd5b600061287a85828601612022565b925050602061288b858286016126d1565b9150509250929050565b60008060008060008060008060a0898b0312156128b157600080fd5b600089013567ffffffffffffffff8111156128cb57600080fd5b6128d78b828c016120ff565b9850985050602089013567ffffffffffffffff8111156128f657600080fd5b6129028b828c016120ff565b9650965050604089013567ffffffffffffffff81111561292157600080fd5b61292d8b828c016120ff565b945094505060606129408b828c016126d1565b92505060806129518b828c016126d1565b9150509295985092959890939650565b600080600080600080600080600080600060e08c8e03121561298257600080fd5b60008c013567ffffffffffffffff81111561299c57600080fd5b6129a88e828f016120ff565b9b509b505060208c013567ffffffffffffffff8111156129c757600080fd5b6129d38e828f016120ff565b995099505060408c013567ffffffffffffffff8111156129f257600080fd5b6129fe8e828f016120ff565b97509750506060612a118e828f016126fb565b95505060808c013567ffffffffffffffff811115612a2e57600080fd5b612a3a8e828f01612061565b945094505060a0612a4d8e828f016126d1565b92505060c0612a5e8e828f016126d1565b9150509295989b509295989b9093969950565b600060608284031215612a8357600080fd5b6000612a918482850161219d565b91505092915050565b600060208284031215612aac57600080fd5b600082015167ffffffffffffffff811115612ac657600080fd5b612ad2848285016121fd565b91505092915050565b600060208284031215612aed57600080fd5b600082015167ffffffffffffffff811115612b0757600080fd5b612b13848285016122cd565b91505092915050565b600060208284031215612b2e57600080fd5b600082015167ffffffffffffffff811115612b4857600080fd5b612b5484828501612359565b91505092915050565b600060208284031215612b6f57600080fd5b600082015167ffffffffffffffff811115612b8957600080fd5b612b958482850161247d565b91505092915050565b600060208284031215612bb057600080fd5b600082015167ffffffffffffffff811115612bca57600080fd5b612bd684828501612509565b91505092915050565b600060608284031215612bf157600080fd5b6000612bff84828501612671565b91505092915050565b600060208284031215612c1a57600080fd5b6000612c28848285016126d1565b91505092915050565b600060208284031215612c4357600080fd5b6000612c51848285016126e6565b91505092915050565b60008060408385031215612c6d57600080fd5b6000612c7b858286016126d1565b9250506020612c8c85828601612022565b9150509250929050565b600080600060408486031215612cab57600080fd5b6000612cb9868287016126d1565b935050602084013567ffffffffffffffff811115612cd657600080fd5b612ce286828701612061565b92509250509250925092565b60008060408385031215612d0157600080fd5b6000612d0f858286016126d1565b9250506020612d20858286016126d1565b9150509250929050565b612d33816138c9565b82525050565b612d42816138b7565b82525050565b612d51816138b7565b82525050565b612d60816138b7565b82525050565b612d6f816138b7565b82525050565b6000612d818385613873565b9350612d8e838584613912565b612d9783613954565b840190509392505050565b6000612dad8261384c565b612db78185613862565b9350612dc7818560208601613921565b612dd081613954565b840191505092915050565b6000612de68261384c565b612df08185613884565b9350612e00818560208601613921565b612e0981613954565b840191505092915050565b6000612e1f82613857565b612e298185613895565b9350612e39818560208601613921565b612e4281613954565b840191505092915050565b6000612e5882613857565b612e6281856138a6565b9350612e72818560208601613921565b612e7b81613954565b840191505092915050565b606082016000820151612e9c6000850182612d39565b506020820151612eaf602085018261341b565b506040820151612ec260408501826133df565b50505050565b60006080830160008301518482036000860152612ee58282612e4d565b91505060208301518482036020860152612eff8282612e4d565b91505060408301518482036040860152612f198282612e4d565b9150506060830151612f2e6060860182612d66565b508091505092915050565b600060a0830160008301518482036000860152612f568282612e4d565b91505060208301518482036020860152612f708282612e4d565b91505060408301518482036040860152612f8a8282612e4d565b9150506060830151612f9f606086018261340c565b506080830151612fb2608086018261340c565b508091505092915050565b600060e0830160008301518482036000860152612fda8282612e4d565b91505060208301518482036020860152612ff48282612e4d565b9150506040830151848203604086015261300e8282612e4d565b9150506060830151613023606086018261342a565b506080830151848203608086015261303b8282612ddb565b91505060a083015161305060a086018261340c565b5060c083015161306360c086018261340c565b508091505092915050565b600060a083016000830151848203600086015261308b8282612e14565b915050602083015184820360208601526130a58282612e14565b915050604083015184820360408601526130bf8282612e14565b91505060608301516130d46060860182612d39565b5060808301516130e760808601826133df565b508091505092915050565b600060808301600083015161310a6000860182612d39565b50602083015184820360208601526131228282612da2565b915050604083015161313760408601826133df565b50606083015161314a60608601826133df565b508091505092915050565b60006101208301600083015184820360008601526131738282612e14565b9150506020830151848203602086015261318d8282612e14565b915050604083015184820360408601526131a78282612e14565b91505060608301516131bc60608601826133df565b5060808301516131cf6080860182612d39565b5060a08301516131e260a086018261341b565b5060c08301516131f560c08601826133df565b5060e083015161320860e08601826133df565b5061010083015161321d6101008601826133df565b508091505092915050565b8082525050565b8082525050565b600060808301600083015161324e6000860182612d39565b50602083015184820360208601526132668282612da2565b915050604083015161327b60408601826133df565b50606083015161328e60608601826133df565b508091505092915050565b60006101608301600083015184820360008601526132b78282612e14565b915050602083015184820360208601526132d18282612e14565b915050604083015184820360408601526132eb8282612e14565b915050606083015161330060608601826133df565b5060808301516133136080860182612d39565b5060a083015161332660a086018261341b565b5060c083015161333960c086018261341b565b5060e083015184820360e08601526133518282612da2565b9150506101008301516133686101008601826133df565b5061012083015161337d6101208601826133df565b506101408301516133926101408601826133df565b508091505092915050565b6060820160008201516133b36000850182612d39565b5060208201516133c6602085018261341b565b5060408201516133d960408501826133df565b50505050565b6133e8816138fb565b82525050565b6133f7816138fb565b82525050565b613406816138fb565b82525050565b613415816138fb565b82525050565b61342481613905565b82525050565b61343381613905565b82525050565b600060208201905061344e6000830184612d48565b92915050565b60006060820190506134696000830184612e86565b92915050565b60006020820190508181036000830152613489818461306e565b905092915050565b600060208201905081810360008301526134ab81846130f2565b905092915050565b600060208201905081810360008301526134cd8184613155565b905092915050565b60006020820190506134ea600083018461322f565b92915050565b60006020820190506135056000830184613228565b92915050565b60006040820190506135206000830185613228565b61352d6020830184612d57565b9392505050565b60006040820190506135496000830185613228565b6135566020830184612d2a565b9392505050565b60006060820190506135726000830186613228565b61357f6020830185612d57565b61358c60408301846133fd565b949350505050565b60006040820190506135a96000830185613228565b81810360208301526135bb8184612ec8565b90509392505050565b60006040820190506135d96000830185613228565b81810360208301526135eb8184612f39565b90509392505050565b60006040820190506136096000830185613228565b818103602083015261361b8184612fbd565b90509392505050565b60006040820190506136396000830185613228565b61364660208301846133fd565b9392505050565b60006060820190506136626000830187613228565b61366f60208301866133fd565b8181036040830152613682818486612d75565b905095945050505050565b60006040820190506136a2600083018561322f565b6136af6020830184612d57565b9392505050565b60006040820190506136cb600083018561322f565b6136d860208301846133fd565b9392505050565b60006060820190506136f4600083018661322f565b61370160208301856133fd565b61370e6040830184612d57565b949350505050565b600060608201905061372b600083018661322f565b61373860208301856133fd565b61374560408301846133fd565b949350505050565b600060208201905081810360008301526137678184613236565b905092915050565b600060208201905081810360008301526137898184613299565b905092915050565b60006060820190506137a6600083018461339d565b92915050565b60006020820190506137c160008301846133ee565b92915050565b6000604051905081810181811067ffffffffffffffff821117156137ea57600080fd5b8060405250919050565b600067ffffffffffffffff82111561380b57600080fd5b601f19601f8301169050602081019050919050565b600067ffffffffffffffff82111561383757600080fd5b601f19601f8301169050602081019050919050565b600081519050919050565b600081519050919050565b600082825260208201905092915050565b600082825260208201905092915050565b600082825260208201905092915050565b600082825260208201905092915050565b600082825260208201905092915050565b60006138c2826138db565b9050919050565b60006138d4826138db565b9050919050565b600073ffffffffffffffffffffffffffffffffffffffff82169050919050565b6000819050919050565b600060ff82169050919050565b82818337600083830152505050565b60005b8381101561393f578082015181840152602081019050613924565b8381111561394e576000848401525b50505050565b6000601f19601f8301169050919050565b61396e816138b7565b811461397957600080fd5b50565b613985816138c9565b811461399057600080fd5b50565b61399c816138fb565b81146139a757600080fd5b50565b6139b381613905565b81146139be57600080fd5b5056fea365627a7a7231582011e781da334d6c42c1bcd8f49067870d5c67c7bfb4698f093cb915c9a4bf686c6c6578706572696d656e74616cf564736f6c634300050c0040",
  "source": "pragma solidity >=0.4.0 <0.7.0;\npragma experimental ABIEncoderV2;\n\nimport \"./Core.sol\";\nimport \"./Getters.sol\";\n\n\ncontract PointX {\n\tusing Core for Core.Store;\n\tCore.Store core;\n\n\tconstructor () public {\n\t\tcore._constructor();\n\t}\n\n\t// --------------------------- BALANCES ETH/TOKEN ---------------------------\n\tfunction increaseContractEthBalance() external payable {}\n\n\tfunction increaseUserEthBalance (address payable acc) public payable {\n\t\tacc.transfer(Core.COMPENSATION());\n\t}\n\n\tfunction setToken(address tokenAddress) external {\n\t\tcore.setToken(tokenAddress);\n\t}\n\n\tfunction addTokenBalance(address partnerAddress, uint amount) external {\n\t\tcore.addTokenBalance(partnerAddress, amount);\n\t}\n\n\tfunction getTokenBalance(address holder) external view returns(uint balance) {\n\t\treturn core.getTokenBalance(holder);\n\t}\n\n\tfunction getTokenAddress() external view returns(address tokenAddress) {\n\t\treturn core.getTokenAddress();\n\t}\n\n\t// --------------------------- ROLES ---------------------------\n\tfunction addPartner(address account, string calldata name, string calldata description, string calldata logo) external {\n\t\tcore.addPartner(Core.NewPartner({\n\t\t\taccount: account,\n\t\t\tname: name,\n\t\t\tdescription: description,\n\t\t\tlogo: logo\n\t\t}));\n\t}\n\n\tfunction addAdmin(address acc) external {\n\t\tcore.addAdmin(acc);\n\t}\n\n\tfunction removeAdmin(address acc) external {\n\t\t core.removeAdmin(acc);\n\t\t}\n\n\tfunction upgradeAdmin(address acc) external {\n\t\tcore.upgradeAdmin(acc);\n\t}\n\n\tfunction addUserAndUnlockTasks(address payable acc) external {\n\t\tincreaseUserEthBalance(acc);\n\t\tcore.addUserAndUnlockTasks(acc);\n\t}\n\n\tfunction unlockRewardsForUser(address payable acc) external {\n\t\tcore.unlockRewardsForUser(acc);\n\t}\n\n\tfunction getPartnersCount() external view returns(uint) {\n\t\treturn Getters.getPartnersCount(core);\n\t}\n\n\tfunction getUsersCount() external view returns(uint) {\n\t\treturn Getters.getUsersCount(core);\n\t}\n\n\tfunction getAdminsCount() external view returns(uint) {\n\t\treturn Getters.getAdminsCount(core);\n\t}\n\n\tfunction getUserByAddress(address acc) external view returns(Core.User memory) {\n\t\treturn Getters.getUserByAddress(core, acc);\n\t}\n\n\tfunction getUserByNumber(uint num) external view returns(Core.User memory) {\n\t\treturn Getters.getUserByNumber(core, num);\n\t}\n\n\tfunction getAdminByAddress(address acc) external view returns(Core.Admin memory) {\n\t\treturn Getters.getAdminByAddress(core, acc);\n\t}\n\n\tfunction getAdminByNumber(uint num) external view returns(Core.Admin memory) {\n\t\treturn Getters.getAdminByNumber(core, num);\n\t}\n\n\tfunction getPartnerByAddress(address acc) external view returns(Core.Partner memory) {\n\t\treturn Getters.getPartnerByAdress(core, acc);\n\t}\n\n\tfunction getPartnerByNumber(uint num) external view returns(Core.Partner memory) {\n\t\treturn Getters.getPartnerByNumber(core, num);\n\t}\n\n\n\t// --------------------------- REWARD ---------------------------\n\tfunction addReward(string calldata caption, string calldata description, string calldata image, uint value, uint totalAmount) external {\n\t\tcore.addReward(Core.NewReward(caption, description, image, value, totalAmount));\n\t}\n\n\tfunction completeReward(uint id) external {\n\t\tcore.completeReward(id);\n\t}\n\n\tfunction acceptReward(uint id) external {\n\t\tcore.acceptReward(id);\n\t}\n\n\tfunction getReward(uint id) external view returns (Core.Reward memory reward) {\n\t\treturn Getters.getReward(core, id);\n\t}\n\n    function getRewardResultByNumber(uint id, uint num) external view returns(Core.RewardResult memory) {\n    \treturn Getters.getRewardResultByNumber(core, id, num);\n    }\n\n    function getRewardResultByAddress(uint id, address acc) external view returns(Core.RewardResult memory) {\n    \treturn Getters.getRewardResultByAddress(core, id, acc);\n    }\n\n    function getRewardsCount() public view returns(uint) {\n    \treturn Getters.getRewardsCount(core);\n    }\n\n\n\t// --------------------------- TASK ---------------------------\n\tfunction addTask(string calldata caption, string calldata description, string calldata image, uint8 itemType, bytes calldata data, uint value, uint totalAmount) external {\n\t\tcore.addTask(Core.NewTask(caption, description, image, itemType, data, value, totalAmount));\n\t}\n\n\tfunction completeTask(uint id, bytes calldata result) external {\n\t\tcore.completeTask(id, result);\n\t}\n\n\tfunction acceptTask(uint id) external {\n\t\tcore.acceptTask(id);\n\t}\n\n\tfunction getTask(uint id) external view returns (Core.Task memory reward) {\n\t\treturn Getters.getTask(core, id);\n\t}\n\n    function getTaskResultByNumber(uint id, uint num) external view returns(Core.TaskResult memory) {\n    \treturn Getters.getTaskResultByNumber(core, id, num);\n    }\n\n    function getTaskResultByAddress(uint id, address acc) external view returns(Core.TaskResult memory) {\n    \treturn Getters.getTaskResultByAddress(core, id, acc);\n    }\n\n\tfunction getTasksCount() public view returns(uint) {\n\t\treturn Getters.getTasksCount(core);\n\t}\n\n}",
  "sourcePath": "/Users/enkogu/Point-X/mobile-client/contracts/PointX.sol",
  "compiler": {
    "name": "solc",
    "version": "0.5.12+commit.7709ece9.Emscripten.clang"
  },
  "schemaVersion": "3.0.20",
  "updatedAt": "2020-04-30T16:06:12.376Z",
  "networkType": "ethereum",
  "devdoc": {
    "methods": {}
  },
  "userdoc": {
    "methods": {}
  }
}